{
  "abi": [
    {
      "inputs": [
        {
          "internalType": "address",
          "name": "_optimisticOracleV3",
          "type": "address"
        }
      ],
      "stateMutability": "nonpayable",
      "type": "constructor"
    },
    {
      "anonymous": false,
      "inputs": [
        {
          "indexed": false,
          "internalType": "bytes32",
          "name": "id",
          "type": "bytes32"
        },
        {
          "indexed": false,
          "internalType": "bytes32",
          "name": "ipfsHash",
          "type": "bytes32"
        },
        {
          "indexed": true,
          "internalType": "address",
          "name": "asserter",
          "type": "address"
        },
        {
          "indexed": false,
          "internalType": "bytes32",
          "name": "assertionId",
          "type": "bytes32"
        }
      ],
      "name": "DataAsserted",
      "type": "event"
    },
    {
      "inputs": [
        {
          "internalType": "bytes32",
          "name": "assertionId",
          "type": "bytes32"
        }
      ],
      "name": "assertionDisputedCallback",
      "outputs": [],
      "stateMutability": "nonpayable",
      "type": "function"
    },
    {
      "inputs": [
        {
          "internalType": "bytes32",
          "name": "assertionId",
          "type": "bytes32"
        },
        {
          "internalType": "bool",
          "name": "assertedTruthfully",
          "type": "bool"
        }
      ],
      "name": "assertionResolvedCallback",
      "outputs": [],
      "stateMutability": "nonpayable",
      "type": "function"
    },
    {
      "inputs": [
        {
          "internalType": "bytes32",
          "name": "",
          "type": "bytes32"
        }
      ],
      "name": "claimsAssertionIdToIdHash",
      "outputs": [
        {
          "internalType": "bytes32",
          "name": "",
          "type": "bytes32"
        }
      ],
      "stateMutability": "view",
      "type": "function"
    },
    {
      "inputs": [
        {
          "internalType": "bytes32",
          "name": "",
          "type": "bytes32"
        }
      ],
      "name": "claimsIdHashToAssertionId",
      "outputs": [
        {
          "internalType": "bytes32",
          "name": "",
          "type": "bytes32"
        }
      ],
      "stateMutability": "view",
      "type": "function"
    },
    {
      "inputs": [],
      "name": "defaultIdentifier",
      "outputs": [
        {
          "internalType": "bytes32",
          "name": "",
          "type": "bytes32"
        }
      ],
      "stateMutability": "view",
      "type": "function"
    },
    {
      "inputs": [
        {
          "internalType": "bytes32",
          "name": "idHash",
          "type": "bytes32"
        }
      ],
      "name": "distributeETH",
      "outputs": [],
      "stateMutability": "nonpayable",
      "type": "function"
    },
    {
      "inputs": [
        {
          "internalType": "bytes32",
          "name": "idHash",
          "type": "bytes32"
        },
        {
          "internalType": "address",
          "name": "tokenAddress",
          "type": "address"
        }
      ],
      "name": "distributeTokens",
      "outputs": [],
      "stateMutability": "nonpayable",
      "type": "function"
    },
    {
      "inputs": [
        {
          "internalType": "address",
          "name": "tokenAddress",
          "type": "address"
        }
      ],
      "name": "getMinimumBondForToken",
      "outputs": [
        {
          "internalType": "uint256",
          "name": "",
          "type": "uint256"
        }
      ],
      "stateMutability": "view",
      "type": "function"
    },
    {
      "inputs": [
        {
          "internalType": "bytes32",
          "name": "idHash",
          "type": "bytes32"
        },
        {
          "internalType": "address",
          "name": "safeAddress",
          "type": "address"
        },
        {
          "internalType": "address[]",
          "name": "beneficiaries",
          "type": "address[]"
        },
        {
          "internalType": "uint256[]",
          "name": "shares",
          "type": "uint256[]"
        }
      ],
      "name": "initWill",
      "outputs": [
        {
          "internalType": "address",
          "name": "",
          "type": "address"
        }
      ],
      "stateMutability": "nonpayable",
      "type": "function"
    },
    {
      "inputs": [],
      "name": "livenessOfAssertion",
      "outputs": [
        {
          "internalType": "uint64",
          "name": "",
          "type": "uint64"
        }
      ],
      "stateMutability": "view",
      "type": "function"
    },
    {
      "inputs": [
        {
          "internalType": "bytes32",
          "name": "idHash",
          "type": "bytes32"
        },
        {
          "internalType": "string",
          "name": "ipfsLink",
          "type": "string"
        },
        {
          "internalType": "address",
          "name": "tokenAddress",
          "type": "address"
        }
      ],
      "name": "startClaimWithMinBond",
      "outputs": [],
      "stateMutability": "payable",
      "type": "function"
    },
    {
      "inputs": [
        {
          "internalType": "string",
          "name": "s",
          "type": "string"
        }
      ],
      "name": "stringToBytes32",
      "outputs": [
        {
          "internalType": "bytes32",
          "name": "",
          "type": "bytes32"
        }
      ],
      "stateMutability": "pure",
      "type": "function"
    },
    {
      "inputs": [
        {
          "internalType": "bytes32",
          "name": "",
          "type": "bytes32"
        }
      ],
      "name": "verifiedClaims",
      "outputs": [
        {
          "internalType": "uint256",
          "name": "",
          "type": "uint256"
        }
      ],
      "stateMutability": "view",
      "type": "function"
    },
    {
      "inputs": [
        {
          "internalType": "bytes32",
          "name": "",
          "type": "bytes32"
        }
      ],
      "name": "willRegister",
      "outputs": [
        {
          "internalType": "address",
          "name": "",
          "type": "address"
        }
      ],
      "stateMutability": "view",
      "type": "function"
    }
  ],
  "bytecode": {
    "object": "0x60a060405260048054600160a01b600160e01b0319166203c26760a71b17905534801561002b57600080fd5b506040516200226e3803806200226e83398101604081905261004c916100cf565b600480546001600160a01b0319166001600160a01b03831690811782556040805163d509b01760e01b81529051919263d509b0179282820192602092908290030181865afa1580156100a2573d6000803e3d6000fd5b505050506040513d601f19601f820116820180604052508101906100c691906100ff565b60805250610118565b6000602082840312156100e157600080fd5b81516001600160a01b03811681146100f857600080fd5b9392505050565b60006020828403121561011157600080fd5b5051919050565b6080516121336200013b6000396000818161027a01526105f601526121336000f3fe608060405260043610620000ef5760003560e01c8063d448a4ec1162000089578063dda1840c1162000060578063dda1840c14620002cd578063eb2d93a41462000311578063f1b156b21462000336578063fa1162e5146200035b57600080fd5b8063d448a4ec1462000244578063d509b0171462000266578063d995df12146200029c57600080fd5b80633db4063811620000ca5780633db4063814620001a45780635543f25e14620001c9578063700c3aae14620001fa578063cfb51928146200021f57600080fd5b806306c9809d14620000f45780630a5a8fcd146200010d5780633ac008ab1462000164575b600080fd5b6200010b6200010536600462000e26565b62000380565b005b3480156200011a57600080fd5b50620001476200012c36600462000e83565b6000602081905290815260409020546001600160a01b031681565b6040516001600160a01b0390911681526020015b60405180910390f35b3480156200017157600080fd5b50620001956200018336600462000e83565b60026020526000908152604090205481565b6040519081526020016200015b565b348015620001b157600080fd5b506200010b620001c336600462000e83565b620006dc565b348015620001d657600080fd5b5062000195620001e836600462000e83565b60036020526000908152604090205481565b3480156200020757600080fd5b50620001956200021936600462000e9d565b6200079a565b3480156200022c57600080fd5b50620001956200023e36600462000ec2565b62000817565b3480156200025157600080fd5b506200010b6200026336600462000e83565b50565b3480156200027357600080fd5b50620001957f000000000000000000000000000000000000000000000000000000000000000081565b348015620002a957600080fd5b5062000195620002bb36600462000e83565b60016020526000908152604090205481565b348015620002da57600080fd5b50600454620002f790600160a01b900467ffffffffffffffff1681565b60405167ffffffffffffffff90911681526020016200015b565b3480156200031e57600080fd5b50620001476200033036600462000f9d565b62000837565b3480156200034357600080fd5b506200010b6200035536600462001098565b620008ab565b3480156200036857600080fd5b506200010b6200037a366004620010cb565b620008ee565b6000838152602081905260409020546001600160a01b0316620003e25760405162461bcd60e51b81526020600482015260156024820152741a5912185cda081b9bdd081c9959da5cdd195c9959605a1b60448201526064015b60405180910390fd5b60048054604051634360af3d60e01b81526001600160a01b038481169382019390935260009290911690634360af3d90602401602060405180830381865afa15801562000433573d6000803e3d6000fd5b505050506040513d601f19601f82011682018060405250810190620004599190620010fa565b6040516323b872dd60e01b8152336004820152306024820152604481018290529091506001600160a01b038316906323b872dd906064016020604051808303816000875af1158015620004b0573d6000803e3d6000fd5b505050506040513d601f19601f82011682018060405250810190620004d6919062001114565b506004805460405163095ea7b360e01b81526001600160a01b03918216928101929092526024820183905283169063095ea7b3906044016020604051808303816000875af11580156200052d573d6000803e3d6000fd5b505050506040513d601f19601f8201168201806040525081019062000553919062001114565b506004546000906001600160a01b0316636457c979856200057488620009b5565b6200057f33620009fa565b6200058a4262000a56565b6200059530620009fa565b604051602001620005ab95949392919062001178565b60408051808303601f19018152908290526004805460e085901b6001600160e01b03191684526200061f9333923092600092600160a01b90910467ffffffffffffffff16918c918c917f000000000000000000000000000000000000000000000000000000000000000091869101620012e3565b6020604051808303816000875af11580156200063f573d6000803e3d6000fd5b505050506040513d601f19601f82011682018060405250810190620006659190620010fa565b6000868152600160209081526040808320849055838352600290915290208690559050337f29ae27364abd65b112ad0ac18e7e4f97360c20afa9636864dc91195d4d9204ec86620006b68762000817565b604080519283526020830191909152810184905260600160405180910390a25050505050565b600081815260036020526040902054600114620007315760405162461bcd60e51b815260206004820152601260248201527110db185a5b481b9bdd081d995c9a599a595960721b6044820152606401620003d9565b60008181526020819052604080822054815163b8b9b54960e01b815291516001600160a01b039091169263b8b9b549926004808201939182900301818387803b1580156200077e57600080fd5b505af115801562000793573d6000803e3d6000fd5b5050505050565b60048054604051634360af3d60e01b81526001600160a01b038481169382019390935260009290911690634360af3d90602401602060405180830381865afa158015620007eb573d6000803e3d6000fd5b505050506040513d601f19601f82011682018060405250810190620008119190620010fa565b92915050565b6000808290506020815111156200082d57602081525b6020015192915050565b600080843385856040516200084c9062000d3a565b6200085b94939291906200136d565b604051809103906000f08015801562000878573d6000803e3d6000fd5b5060009687526020879052604090962080546001600160a01b0319166001600160a01b0388161790555093949350505050565b6004546001600160a01b03163314620008c357600080fd5b8015620008ea57600082815260026020908152604080832054835260039091529020600190555b5050565b600082815260036020526040902054600114620009435760405162461bcd60e51b815260206004820152601260248201527110db185a5b481b9bdd081d995c9a599a595960721b6044820152606401620003d9565b6000828152602081905260409081902054905163163a2f9360e31b81526001600160a01b0383811660048301529091169063b1d17c9890602401600060405180830381600087803b1580156200099857600080fd5b505af1158015620009ad573d6000803e3d6000fd5b505050505050565b6060620009c6608083901c62000b9e565b620009d18362000b9e565b6040805160208101939093528201526060015b6040516020818303038152906040529050919050565b606062000a146001600160801b03602084901c1662000b9e565b62000a318360601b6bffffffffffffffffffffffff191662000b9e565b604051602001620009e49291909182526001600160c01b031916602082015260280190565b60608160000362000a7e5750506040805180820190915260018152600360fc1b602082015290565b8160005b811562000aae578062000a958162001422565b915062000aa69050600a8362001454565b915062000a82565b60008167ffffffffffffffff81111562000acc5762000acc62000d48565b6040519080825280601f01601f19166020018201604052801562000af7576020820181803683370190505b509050815b851562000b955762000b1060018262001477565b9050600062000b21600a8862001454565b62000b2e90600a6200148d565b62000b3a908862001477565b62000b47906030620014af565b905060008160f81b90508084848151811062000b675762000b67620014cb565b60200101906001600160f81b031916908160001a90535062000b8b600a8962001454565b9750505062000afc565b50949350505050565b6000808260001c9050806001600160801b03169050806801000000000000000002811777ffffffffffffffff0000000000000000ffffffffffffffff169050806401000000000281177bffffffff00000000ffffffff00000000ffffffff00000000ffffffff16905080620100000281177dffff0000ffff0000ffff0000ffff0000ffff0000ffff0000ffff0000ffff169050806101000281177eff00ff00ff00ff00ff00ff00ff00ff00ff00ff00ff00ff00ff00ff00ff00ff1690508060100281177f0f0f0f0f0f0f0f0f0f0f0f0f0f0f0f0f0f0f0f0f0f0f0f0f0f0f0f0f0f0f0f0f16905060006008827f0808080808080808080808080808080808080808080808080808080808080808168162000cbc5762000cbc6200143e565b0460047f040404040404040404040404040404040404040404040404040404040404040484160460027f020202020202020202020202020202020202020202020202020202020202020285160417166027029091017f3030303030303030303030303030303030303030303030303030303030303030019392505050565b610c1c80620014e283390190565b634e487b7160e01b600052604160045260246000fd5b604051601f8201601f1916810167ffffffffffffffff8111828210171562000d8a5762000d8a62000d48565b604052919050565b600082601f83011262000da457600080fd5b813567ffffffffffffffff81111562000dc15762000dc162000d48565b62000dd6601f8201601f191660200162000d5e565b81815284602083860101111562000dec57600080fd5b816020850160208301376000918101602001919091529392505050565b80356001600160a01b038116811462000e2157600080fd5b919050565b60008060006060848603121562000e3c57600080fd5b83359250602084013567ffffffffffffffff81111562000e5b57600080fd5b62000e698682870162000d92565b92505062000e7a6040850162000e09565b90509250925092565b60006020828403121562000e9657600080fd5b5035919050565b60006020828403121562000eb057600080fd5b62000ebb8262000e09565b9392505050565b60006020828403121562000ed557600080fd5b813567ffffffffffffffff81111562000eed57600080fd5b62000efb8482850162000d92565b949350505050565b600067ffffffffffffffff82111562000f205762000f2062000d48565b5060051b60200190565b600082601f83011262000f3c57600080fd5b8135602062000f5562000f4f8362000f03565b62000d5e565b82815260059290921b8401810191818101908684111562000f7557600080fd5b8286015b8481101562000f92578035835291830191830162000f79565b509695505050505050565b6000806000806080858703121562000fb457600080fd5b84359350602062000fc781870162000e09565b9350604086013567ffffffffffffffff8082111562000fe557600080fd5b818801915088601f83011262000ffa57600080fd5b81356200100b62000f4f8262000f03565b81815260059190911b8301840190848101908b8311156200102b57600080fd5b938501935b828510156200105457620010448562000e09565b8252938501939085019062001030565b9650505060608801359250808311156200106d57600080fd5b50506200107d8782880162000f2a565b91505092959194509250565b80151581146200026357600080fd5b60008060408385031215620010ac57600080fd5b823591506020830135620010c08162001089565b809150509250929050565b60008060408385031215620010df57600080fd5b82359150620010f16020840162000e09565b90509250929050565b6000602082840312156200110d57600080fd5b5051919050565b6000602082840312156200112757600080fd5b815162000ebb8162001089565b60005b838110156200115157818101518382015260200162001137565b50506000910152565b600081516200116e81856020860162001134565b9290920192915050565b7f434c41494d3a2046696c6520696e2049504653206c696e6b2000000000000000815260008651620011b2816019850160208b0162001134565b7f2070726f76657320746865206465617468206f66206120706572736f6e207768601991840191820152750de40ccead8ccd2d8d8e640e8d0ca40d0c2e6d04060f60531b603982015286516200121081604f840160208b0162001134565b71040eed2e8d040c2e6e6cae4e8cae4744060f60731b604f9290910191820152855162001245816061840160208a0162001134565b6e01030ba103a34b6b2b9ba30b6b81d1608d1b6061929091019182015284516200127781607084016020890162001134565b7f20696e207468652044617461417373657274657220636f6e7472616374206174607092909101918201526204060f60eb1b6090820152620012d7620012c160938301866200115a565b691034b9903b30b634b21760b11b8152600a0190565b98975050505050505050565b610120815260008a51806101208401526200130781610140850160208f0162001134565b6001600160a01b039a8b166020840152988a16604083015250958816606087015267ffffffffffffffff9490941660808601529190951660a084015260c083019490945260e0820193909352610100810192909252601f01601f19160161014001919050565b60006080820160018060a01b0380881684526020818816818601526080604086015282875180855260a087019150828901945060005b81811015620013c3578551851683529483019491830191600101620013a3565b5050858103606087015286518082529082019350915080860160005b83811015620013fd57815185529382019390820190600101620013df565b50929998505050505050505050565b634e487b7160e01b600052601160045260246000fd5b6000600182016200143757620014376200140c565b5060010190565b634e487b7160e01b600052601260045260246000fd5b6000826200147257634e487b7160e01b600052601260045260246000fd5b500490565b818103818111156200081157620008116200140c565b6000816000190483118215151615620014aa57620014aa6200140c565b500290565b60ff81811683821601908111156200081157620008116200140c565b634e487b7160e01b600052603260045260246000fdfe60806040523480156200001157600080fd5b5060405162000c1c38038062000c1c833981016040819052620000349162000324565b600480546001600160a01b0319166001600160a01b03851617905581516200006490600290602085019062000166565b5080516200007a906003906020840190620001d0565b50600180546001600160a01b0386166001600160a01b0319918216811790925560008054909116909117905560035460025414620000fe5760405162461bcd60e51b815260206004820152601c60248201527f41727261797320617265206e6f74207468652073616d652073697a6500000000604482015260640160405180910390fd5b60005b6003548110156200015b57600381815481106200012257620001226200041a565b90600052602060002001546005600082825462000140919062000446565b90915550819050620001528162000462565b91505062000101565b50505050506200047e565b828054828255906000526020600020908101928215620001be579160200282015b82811115620001be57825182546001600160a01b0319166001600160a01b0390911617825560209092019160019091019062000187565b50620001cc9291506200020e565b5090565b828054828255906000526020600020908101928215620001be579160200282015b82811115620001be578251825591602001919060010190620001f1565b5b80821115620001cc57600081556001016200020f565b80516001600160a01b03811681146200023d57600080fd5b919050565b634e487b7160e01b600052604160045260246000fd5b604051601f8201601f191681016001600160401b038111828210171562000283576200028362000242565b604052919050565b60006001600160401b03821115620002a757620002a762000242565b5060051b60200190565b600082601f830112620002c357600080fd5b81516020620002dc620002d6836200028b565b62000258565b82815260059290921b84018101918181019086841115620002fc57600080fd5b8286015b8481101562000319578051835291830191830162000300565b509695505050505050565b600080600080608085870312156200033b57600080fd5b620003468562000225565b935060206200035781870162000225565b60408701519094506001600160401b03808211156200037557600080fd5b818801915088601f8301126200038a57600080fd5b81516200039b620002d6826200028b565b81815260059190911b8301840190848101908b831115620003bb57600080fd5b938501935b82851015620003e457620003d48562000225565b82529385019390850190620003c0565b60608b01519097509450505080831115620003fe57600080fd5b50506200040e87828801620002b1565b91505092959194509250565b634e487b7160e01b600052603260045260246000fd5b634e487b7160e01b600052601160045260246000fd5b808201808211156200045c576200045c62000430565b92915050565b60006001820162000477576200047762000430565b5060010190565b61078e806200048e6000396000f3fe608060405234801561001057600080fd5b50600436106100415760003560e01c8063a3f4df7e14610046578063b1d17c981461008b578063b8b9b549146100a0575b600080fd5b6100756040518060400160405280601081526020016f644554482053616665204d6f64756c6560801b81525081565b6040516100829190610550565b60405180910390f35b61009e61009936600461056a565b6100a8565b005b61009e610225565b6004546001600160a01b031633146100db5760405162461bcd60e51b81526004016100d290610593565b60405180910390fd5b6001546040516370a0823160e01b81526001600160a01b0391821660048201528291600091908316906370a0823190602401602060405180830381865afa15801561012a573d6000803e3d6000fd5b505050506040513d601f19601f8201168201806040525081019061014e91906105e2565b905060005b60025461016290600190610611565b8110156101eb576101d984600283815481106101805761018061062a565b9060005260206000200160009054906101000a90046001600160a01b031660055485600386815481106101b5576101b561062a565b90600052602060002001546101ca9190610640565b6101d4919061065f565b61032d565b806101e381610681565b915050610153565b50600280546102209185916101fe61062a565b6000918252602090912001546001546001600160a01b0391821691163161032d565b505050565b6004546001600160a01b0316331461024f5760405162461bcd60e51b81526004016100d290610593565b6001546001600160a01b03163160005b60025461026e90600190610611565b8110156102f6576102e46002828154811061028b5761028b61062a565b9060005260206000200160009054906101000a90046001600160a01b031660055484600385815481106102c0576102c061062a565b90600052602060002001546102d59190610640565b6102df919061065f565b610443565b806102ee81610681565b91505061025f565b506002805461032a919061030861062a565b6000918252602090912001546001546001600160a01b03918216911631610443565b50565b6040516001600160a01b03831660248201526044810182905260009060640160408051601f198184030181529181526020820180516001600160e01b031663a9059cbb60e01b17905260008054915163468721a760e01b81529293506001600160a01b039091169163468721a7916103ae91889190869082906004016106bc565b6020604051808303816000875af11580156103cd573d6000803e3d6000fd5b505050506040513d601f19601f820116820180604052508101906103f191906106fb565b61043d5760405162461bcd60e51b815260206004820181905260248201527f436f756c64206e6f74206578656375746520746f6b656e207472616e7366657260448201526064016100d2565b50505050565b6000805460405163468721a760e01b81526001600160a01b039091169163468721a79161047791869186919060040161071d565b6020604051808303816000875af1158015610496573d6000803e3d6000fd5b505050506040513d601f19601f820116820180604052508101906104ba91906106fb565b6105065760405162461bcd60e51b815260206004820181905260248201527f436f756c64206e6f742065786563757465204574686572207472616e7366657260448201526064016100d2565b5050565b6000815180845260005b8181101561053057602081850181015186830182015201610514565b506000602082860101526020601f19601f83011685010191505092915050565b602081526000610563602083018461050a565b9392505050565b60006020828403121561057c57600080fd5b81356001600160a01b038116811461056357600080fd5b6020808252602f908201527f4f6e6c7920746865206d617374657220636f6e74726163742063616e2063616c60408201526e36103a3434b990333ab731ba34b7b760891b606082015260800190565b6000602082840312156105f457600080fd5b5051919050565b634e487b7160e01b600052601160045260246000fd5b81810381811115610624576106246105fb565b92915050565b634e487b7160e01b600052603260045260246000fd5b600081600019048311821515161561065a5761065a6105fb565b500290565b60008261067c57634e487b7160e01b600052601260045260246000fd5b500490565b600060018201610693576106936105fb565b5060010190565b600281106106b857634e487b7160e01b600052602160045260246000fd5b9052565b60018060a01b03851681528360208201526080604082015260006106e3608083018561050a565b90506106f2606083018461069a565b95945050505050565b60006020828403121561070d57600080fd5b8151801515811461056357600080fd5b6001600160a01b03841681526020810183905260806040820181905260009082015260a08101610750606083018461069a565b94935050505056fea2646970667358221220eb86b68e81da720554bc86df5f6632b168c144689f93bcd9cdc37df2c3a9715764736f6c63430008100033a26469706673582212200b93467ad81ba5628b0b885f94f62b4d65e4774fa352d64ea173b4a5f14f6eaa64736f6c63430008100033",
    "linkReferences": {}
  },
  "methodIdentifiers": {
    "assertionDisputedCallback(bytes32)": "d448a4ec",
    "assertionResolvedCallback(bytes32,bool)": "f1b156b2",
    "claimsAssertionIdToIdHash(bytes32)": "3ac008ab",
    "claimsIdHashToAssertionId(bytes32)": "d995df12",
    "defaultIdentifier()": "d509b017",
    "distributeETH(bytes32)": "3db40638",
    "distributeTokens(bytes32,address)": "fa1162e5",
    "getMinimumBondForToken(address)": "700c3aae",
    "initWill(bytes32,address,address[],uint256[])": "eb2d93a4",
    "livenessOfAssertion()": "dda1840c",
    "startClaimWithMinBond(bytes32,string,address)": "06c9809d",
    "stringToBytes32(string)": "cfb51928",
    "verifiedClaims(bytes32)": "5543f25e",
    "willRegister(bytes32)": "0a5a8fcd"
  },
  "id": 21
}