{
  "abi": [
    {
      "inputs": [
        {
          "internalType": "address",
          "name": "safeAddress",
          "type": "address"
        },
        {
          "internalType": "address",
          "name": "dethAddress",
          "type": "address"
        },
        {
          "internalType": "address[]",
          "name": "beneficiaries",
          "type": "address[]"
        },
        {
          "internalType": "uint256[]",
          "name": "shares",
          "type": "uint256[]"
        }
      ],
      "stateMutability": "nonpayable",
      "type": "constructor"
    },
    {
      "inputs": [],
      "name": "NAME",
      "outputs": [
        {
          "internalType": "string",
          "name": "",
          "type": "string"
        }
      ],
      "stateMutability": "view",
      "type": "function"
    },
    {
      "inputs": [],
      "name": "distributeETH",
      "outputs": [],
      "stateMutability": "nonpayable",
      "type": "function"
    },
    {
      "inputs": [
        {
          "internalType": "address",
          "name": "tokenAddress",
          "type": "address"
        }
      ],
      "name": "distributeTokens",
      "outputs": [],
      "stateMutability": "nonpayable",
      "type": "function"
    }
  ],
  "bytecode": {
    "object": "0x60806040523480156200001157600080fd5b5060405162000c1c38038062000c1c833981016040819052620000349162000324565b600480546001600160a01b0319166001600160a01b03851617905581516200006490600290602085019062000166565b5080516200007a906003906020840190620001d0565b50600180546001600160a01b0386166001600160a01b0319918216811790925560008054909116909117905560035460025414620000fe5760405162461bcd60e51b815260206004820152601c60248201527f41727261797320617265206e6f74207468652073616d652073697a6500000000604482015260640160405180910390fd5b60005b6003548110156200015b57600381815481106200012257620001226200041a565b90600052602060002001546005600082825462000140919062000446565b90915550819050620001528162000462565b91505062000101565b50505050506200047e565b828054828255906000526020600020908101928215620001be579160200282015b82811115620001be57825182546001600160a01b0319166001600160a01b0390911617825560209092019160019091019062000187565b50620001cc9291506200020e565b5090565b828054828255906000526020600020908101928215620001be579160200282015b82811115620001be578251825591602001919060010190620001f1565b5b80821115620001cc57600081556001016200020f565b80516001600160a01b03811681146200023d57600080fd5b919050565b634e487b7160e01b600052604160045260246000fd5b604051601f8201601f191681016001600160401b038111828210171562000283576200028362000242565b604052919050565b60006001600160401b03821115620002a757620002a762000242565b5060051b60200190565b600082601f830112620002c357600080fd5b81516020620002dc620002d6836200028b565b62000258565b82815260059290921b84018101918181019086841115620002fc57600080fd5b8286015b8481101562000319578051835291830191830162000300565b509695505050505050565b600080600080608085870312156200033b57600080fd5b620003468562000225565b935060206200035781870162000225565b60408701519094506001600160401b03808211156200037557600080fd5b818801915088601f8301126200038a57600080fd5b81516200039b620002d6826200028b565b81815260059190911b8301840190848101908b831115620003bb57600080fd5b938501935b82851015620003e457620003d48562000225565b82529385019390850190620003c0565b60608b01519097509450505080831115620003fe57600080fd5b50506200040e87828801620002b1565b91505092959194509250565b634e487b7160e01b600052603260045260246000fd5b634e487b7160e01b600052601160045260246000fd5b808201808211156200045c576200045c62000430565b92915050565b60006001820162000477576200047762000430565b5060010190565b61078e806200048e6000396000f3fe608060405234801561001057600080fd5b50600436106100415760003560e01c8063a3f4df7e14610046578063b1d17c981461008b578063b8b9b549146100a0575b600080fd5b6100756040518060400160405280601081526020016f644554482053616665204d6f64756c6560801b81525081565b6040516100829190610550565b60405180910390f35b61009e61009936600461056a565b6100a8565b005b61009e610225565b6004546001600160a01b031633146100db5760405162461bcd60e51b81526004016100d290610593565b60405180910390fd5b6001546040516370a0823160e01b81526001600160a01b0391821660048201528291600091908316906370a0823190602401602060405180830381865afa15801561012a573d6000803e3d6000fd5b505050506040513d601f19601f8201168201806040525081019061014e91906105e2565b905060005b60025461016290600190610611565b8110156101eb576101d984600283815481106101805761018061062a565b9060005260206000200160009054906101000a90046001600160a01b031660055485600386815481106101b5576101b561062a565b90600052602060002001546101ca9190610640565b6101d4919061065f565b61032d565b806101e381610681565b915050610153565b50600280546102209185916101fe61062a565b6000918252602090912001546001546001600160a01b0391821691163161032d565b505050565b6004546001600160a01b0316331461024f5760405162461bcd60e51b81526004016100d290610593565b6001546001600160a01b03163160005b60025461026e90600190610611565b8110156102f6576102e46002828154811061028b5761028b61062a565b9060005260206000200160009054906101000a90046001600160a01b031660055484600385815481106102c0576102c061062a565b90600052602060002001546102d59190610640565b6102df919061065f565b610443565b806102ee81610681565b91505061025f565b506002805461032a919061030861062a565b6000918252602090912001546001546001600160a01b03918216911631610443565b50565b6040516001600160a01b03831660248201526044810182905260009060640160408051601f198184030181529181526020820180516001600160e01b031663a9059cbb60e01b17905260008054915163468721a760e01b81529293506001600160a01b039091169163468721a7916103ae91889190869082906004016106bc565b6020604051808303816000875af11580156103cd573d6000803e3d6000fd5b505050506040513d601f19601f820116820180604052508101906103f191906106fb565b61043d5760405162461bcd60e51b815260206004820181905260248201527f436f756c64206e6f74206578656375746520746f6b656e207472616e7366657260448201526064016100d2565b50505050565b6000805460405163468721a760e01b81526001600160a01b039091169163468721a79161047791869186919060040161071d565b6020604051808303816000875af1158015610496573d6000803e3d6000fd5b505050506040513d601f19601f820116820180604052508101906104ba91906106fb565b6105065760405162461bcd60e51b815260206004820181905260248201527f436f756c64206e6f742065786563757465204574686572207472616e7366657260448201526064016100d2565b5050565b6000815180845260005b8181101561053057602081850181015186830182015201610514565b506000602082860101526020601f19601f83011685010191505092915050565b602081526000610563602083018461050a565b9392505050565b60006020828403121561057c57600080fd5b81356001600160a01b038116811461056357600080fd5b6020808252602f908201527f4f6e6c7920746865206d617374657220636f6e74726163742063616e2063616c60408201526e36103a3434b990333ab731ba34b7b760891b606082015260800190565b6000602082840312156105f457600080fd5b5051919050565b634e487b7160e01b600052601160045260246000fd5b81810381811115610624576106246105fb565b92915050565b634e487b7160e01b600052603260045260246000fd5b600081600019048311821515161561065a5761065a6105fb565b500290565b60008261067c57634e487b7160e01b600052601260045260246000fd5b500490565b600060018201610693576106936105fb565b5060010190565b600281106106b857634e487b7160e01b600052602160045260246000fd5b9052565b60018060a01b03851681528360208201526080604082015260006106e3608083018561050a565b90506106f2606083018461069a565b95945050505050565b60006020828403121561070d57600080fd5b8151801515811461056357600080fd5b6001600160a01b03841681526020810183905260806040820181905260009082015260a08101610750606083018461069a565b94935050505056fea2646970667358221220eb86b68e81da720554bc86df5f6632b168c144689f93bcd9cdc37df2c3a9715764736f6c63430008100033",
    "linkReferences": {}
  },
  "methodIdentifiers": {
    "NAME()": "a3f4df7e",
    "distributeETH()": "b8b9b549",
    "distributeTokens(address)": "b1d17c98"
  },
  "id": 22
}