{
  "abi": [
    {
      "anonymous": false,
      "inputs": [
        {
          "indexed": true,
          "internalType": "address",
          "name": "owner",
          "type": "address"
        }
      ],
      "name": "AddedOwner",
      "type": "event"
    },
    {
      "anonymous": false,
      "inputs": [
        {
          "indexed": true,
          "internalType": "bytes32",
          "name": "approvedHash",
          "type": "bytes32"
        },
        {
          "indexed": true,
          "internalType": "address",
          "name": "owner",
          "type": "address"
        }
      ],
      "name": "ApproveHash",
      "type": "event"
    },
    {
      "anonymous": false,
      "inputs": [
        {
          "indexed": true,
          "internalType": "address",
          "name": "handler",
          "type": "address"
        }
      ],
      "name": "ChangedFallbackHandler",
      "type": "event"
    },
    {
      "anonymous": false,
      "inputs": [
        {
          "indexed": true,
          "internalType": "address",
          "name": "guard",
          "type": "address"
        }
      ],
      "name": "ChangedGuard",
      "type": "event"
    },
    {
      "anonymous": false,
      "inputs": [
        {
          "indexed": false,
          "internalType": "uint256",
          "name": "threshold",
          "type": "uint256"
        }
      ],
      "name": "ChangedThreshold",
      "type": "event"
    },
    {
      "anonymous": false,
      "inputs": [
        {
          "indexed": true,
          "internalType": "address",
          "name": "module",
          "type": "address"
        }
      ],
      "name": "DisabledModule",
      "type": "event"
    },
    {
      "anonymous": false,
      "inputs": [
        {
          "indexed": true,
          "internalType": "address",
          "name": "module",
          "type": "address"
        }
      ],
      "name": "EnabledModule",
      "type": "event"
    },
    {
      "anonymous": false,
      "inputs": [
        {
          "indexed": true,
          "internalType": "bytes32",
          "name": "txHash",
          "type": "bytes32"
        },
        {
          "indexed": false,
          "internalType": "uint256",
          "name": "payment",
          "type": "uint256"
        }
      ],
      "name": "ExecutionFailure",
      "type": "event"
    },
    {
      "anonymous": false,
      "inputs": [
        {
          "indexed": true,
          "internalType": "address",
          "name": "module",
          "type": "address"
        }
      ],
      "name": "ExecutionFromModuleFailure",
      "type": "event"
    },
    {
      "anonymous": false,
      "inputs": [
        {
          "indexed": true,
          "internalType": "address",
          "name": "module",
          "type": "address"
        }
      ],
      "name": "ExecutionFromModuleSuccess",
      "type": "event"
    },
    {
      "anonymous": false,
      "inputs": [
        {
          "indexed": true,
          "internalType": "bytes32",
          "name": "txHash",
          "type": "bytes32"
        },
        {
          "indexed": false,
          "internalType": "uint256",
          "name": "payment",
          "type": "uint256"
        }
      ],
      "name": "ExecutionSuccess",
      "type": "event"
    },
    {
      "anonymous": false,
      "inputs": [
        {
          "indexed": true,
          "internalType": "address",
          "name": "owner",
          "type": "address"
        }
      ],
      "name": "RemovedOwner",
      "type": "event"
    },
    {
      "anonymous": false,
      "inputs": [
        {
          "indexed": false,
          "internalType": "address",
          "name": "module",
          "type": "address"
        },
        {
          "indexed": false,
          "internalType": "address",
          "name": "to",
          "type": "address"
        },
        {
          "indexed": false,
          "internalType": "uint256",
          "name": "value",
          "type": "uint256"
        },
        {
          "indexed": false,
          "internalType": "bytes",
          "name": "data",
          "type": "bytes"
        },
        {
          "indexed": false,
          "internalType": "enum Enum.Operation",
          "name": "operation",
          "type": "uint8"
        }
      ],
      "name": "SafeModuleTransaction",
      "type": "event"
    },
    {
      "anonymous": false,
      "inputs": [
        {
          "indexed": false,
          "internalType": "address",
          "name": "to",
          "type": "address"
        },
        {
          "indexed": false,
          "internalType": "uint256",
          "name": "value",
          "type": "uint256"
        },
        {
          "indexed": false,
          "internalType": "bytes",
          "name": "data",
          "type": "bytes"
        },
        {
          "indexed": false,
          "internalType": "enum Enum.Operation",
          "name": "operation",
          "type": "uint8"
        },
        {
          "indexed": false,
          "internalType": "uint256",
          "name": "safeTxGas",
          "type": "uint256"
        },
        {
          "indexed": false,
          "internalType": "uint256",
          "name": "baseGas",
          "type": "uint256"
        },
        {
          "indexed": false,
          "internalType": "uint256",
          "name": "gasPrice",
          "type": "uint256"
        },
        {
          "indexed": false,
          "internalType": "address",
          "name": "gasToken",
          "type": "address"
        },
        {
          "indexed": false,
          "internalType": "address payable",
          "name": "refundReceiver",
          "type": "address"
        },
        {
          "indexed": false,
          "internalType": "bytes",
          "name": "signatures",
          "type": "bytes"
        },
        {
          "indexed": false,
          "internalType": "bytes",
          "name": "additionalInfo",
          "type": "bytes"
        }
      ],
      "name": "SafeMultiSigTransaction",
      "type": "event"
    },
    {
      "anonymous": false,
      "inputs": [
        {
          "indexed": true,
          "internalType": "address",
          "name": "sender",
          "type": "address"
        },
        {
          "indexed": false,
          "internalType": "uint256",
          "name": "value",
          "type": "uint256"
        }
      ],
      "name": "SafeReceived",
      "type": "event"
    },
    {
      "anonymous": false,
      "inputs": [
        {
          "indexed": true,
          "internalType": "address",
          "name": "initiator",
          "type": "address"
        },
        {
          "indexed": false,
          "internalType": "address[]",
          "name": "owners",
          "type": "address[]"
        },
        {
          "indexed": false,
          "internalType": "uint256",
          "name": "threshold",
          "type": "uint256"
        },
        {
          "indexed": false,
          "internalType": "address",
          "name": "initializer",
          "type": "address"
        },
        {
          "indexed": false,
          "internalType": "address",
          "name": "fallbackHandler",
          "type": "address"
        }
      ],
      "name": "SafeSetup",
      "type": "event"
    },
    {
      "anonymous": false,
      "inputs": [
        {
          "indexed": true,
          "internalType": "bytes32",
          "name": "msgHash",
          "type": "bytes32"
        }
      ],
      "name": "SignMsg",
      "type": "event"
    },
    {
      "stateMutability": "nonpayable",
      "type": "fallback"
    },
    {
      "inputs": [],
      "name": "VERSION",
      "outputs": [
        {
          "internalType": "string",
          "name": "",
          "type": "string"
        }
      ],
      "stateMutability": "view",
      "type": "function"
    },
    {
      "inputs": [
        {
          "internalType": "address",
          "name": "owner",
          "type": "address"
        },
        {
          "internalType": "uint256",
          "name": "_threshold",
          "type": "uint256"
        }
      ],
      "name": "addOwnerWithThreshold",
      "outputs": [],
      "stateMutability": "nonpayable",
      "type": "function"
    },
    {
      "inputs": [
        {
          "internalType": "bytes32",
          "name": "hashToApprove",
          "type": "bytes32"
        }
      ],
      "name": "approveHash",
      "outputs": [],
      "stateMutability": "nonpayable",
      "type": "function"
    },
    {
      "inputs": [
        {
          "internalType": "address",
          "name": "",
          "type": "address"
        },
        {
          "internalType": "bytes32",
          "name": "",
          "type": "bytes32"
        }
      ],
      "name": "approvedHashes",
      "outputs": [
        {
          "internalType": "uint256",
          "name": "",
          "type": "uint256"
        }
      ],
      "stateMutability": "view",
      "type": "function"
    },
    {
      "inputs": [
        {
          "internalType": "uint256",
          "name": "_threshold",
          "type": "uint256"
        }
      ],
      "name": "changeThreshold",
      "outputs": [],
      "stateMutability": "nonpayable",
      "type": "function"
    },
    {
      "inputs": [
        {
          "internalType": "bytes32",
          "name": "dataHash",
          "type": "bytes32"
        },
        {
          "internalType": "bytes",
          "name": "data",
          "type": "bytes"
        },
        {
          "internalType": "bytes",
          "name": "signatures",
          "type": "bytes"
        },
        {
          "internalType": "uint256",
          "name": "requiredSignatures",
          "type": "uint256"
        }
      ],
      "name": "checkNSignatures",
      "outputs": [],
      "stateMutability": "view",
      "type": "function"
    },
    {
      "inputs": [
        {
          "internalType": "bytes32",
          "name": "dataHash",
          "type": "bytes32"
        },
        {
          "internalType": "bytes",
          "name": "data",
          "type": "bytes"
        },
        {
          "internalType": "bytes",
          "name": "signatures",
          "type": "bytes"
        }
      ],
      "name": "checkSignatures",
      "outputs": [],
      "stateMutability": "view",
      "type": "function"
    },
    {
      "inputs": [
        {
          "internalType": "address",
          "name": "prevModule",
          "type": "address"
        },
        {
          "internalType": "address",
          "name": "module",
          "type": "address"
        }
      ],
      "name": "disableModule",
      "outputs": [],
      "stateMutability": "nonpayable",
      "type": "function"
    },
    {
      "inputs": [],
      "name": "domainSeparator",
      "outputs": [
        {
          "internalType": "bytes32",
          "name": "",
          "type": "bytes32"
        }
      ],
      "stateMutability": "view",
      "type": "function"
    },
    {
      "inputs": [
        {
          "internalType": "address",
          "name": "module",
          "type": "address"
        }
      ],
      "name": "enableModule",
      "outputs": [],
      "stateMutability": "nonpayable",
      "type": "function"
    },
    {
      "inputs": [
        {
          "internalType": "address",
          "name": "to",
          "type": "address"
        },
        {
          "internalType": "uint256",
          "name": "value",
          "type": "uint256"
        },
        {
          "internalType": "bytes",
          "name": "data",
          "type": "bytes"
        },
        {
          "internalType": "enum Enum.Operation",
          "name": "operation",
          "type": "uint8"
        },
        {
          "internalType": "uint256",
          "name": "safeTxGas",
          "type": "uint256"
        },
        {
          "internalType": "uint256",
          "name": "baseGas",
          "type": "uint256"
        },
        {
          "internalType": "uint256",
          "name": "gasPrice",
          "type": "uint256"
        },
        {
          "internalType": "address",
          "name": "gasToken",
          "type": "address"
        },
        {
          "internalType": "address",
          "name": "refundReceiver",
          "type": "address"
        },
        {
          "internalType": "uint256",
          "name": "_nonce",
          "type": "uint256"
        }
      ],
      "name": "encodeTransactionData",
      "outputs": [
        {
          "internalType": "bytes",
          "name": "",
          "type": "bytes"
        }
      ],
      "stateMutability": "view",
      "type": "function"
    },
    {
      "inputs": [
        {
          "internalType": "address",
          "name": "to",
          "type": "address"
        },
        {
          "internalType": "uint256",
          "name": "value",
          "type": "uint256"
        },
        {
          "internalType": "bytes",
          "name": "data",
          "type": "bytes"
        },
        {
          "internalType": "enum Enum.Operation",
          "name": "operation",
          "type": "uint8"
        },
        {
          "internalType": "uint256",
          "name": "safeTxGas",
          "type": "uint256"
        },
        {
          "internalType": "uint256",
          "name": "baseGas",
          "type": "uint256"
        },
        {
          "internalType": "uint256",
          "name": "gasPrice",
          "type": "uint256"
        },
        {
          "internalType": "address",
          "name": "gasToken",
          "type": "address"
        },
        {
          "internalType": "address payable",
          "name": "refundReceiver",
          "type": "address"
        },
        {
          "internalType": "bytes",
          "name": "signatures",
          "type": "bytes"
        }
      ],
      "name": "execTransaction",
      "outputs": [
        {
          "internalType": "bool",
          "name": "",
          "type": "bool"
        }
      ],
      "stateMutability": "payable",
      "type": "function"
    },
    {
      "inputs": [
        {
          "internalType": "address",
          "name": "to",
          "type": "address"
        },
        {
          "internalType": "uint256",
          "name": "value",
          "type": "uint256"
        },
        {
          "internalType": "bytes",
          "name": "data",
          "type": "bytes"
        },
        {
          "internalType": "enum Enum.Operation",
          "name": "operation",
          "type": "uint8"
        }
      ],
      "name": "execTransactionFromModule",
      "outputs": [
        {
          "internalType": "bool",
          "name": "success",
          "type": "bool"
        }
      ],
      "stateMutability": "nonpayable",
      "type": "function"
    },
    {
      "inputs": [
        {
          "internalType": "address",
          "name": "to",
          "type": "address"
        },
        {
          "internalType": "uint256",
          "name": "value",
          "type": "uint256"
        },
        {
          "internalType": "bytes",
          "name": "data",
          "type": "bytes"
        },
        {
          "internalType": "enum Enum.Operation",
          "name": "operation",
          "type": "uint8"
        }
      ],
      "name": "execTransactionFromModuleReturnData",
      "outputs": [
        {
          "internalType": "bool",
          "name": "success",
          "type": "bool"
        },
        {
          "internalType": "bytes",
          "name": "returnData",
          "type": "bytes"
        }
      ],
      "stateMutability": "nonpayable",
      "type": "function"
    },
    {
      "inputs": [],
      "name": "getChainId",
      "outputs": [
        {
          "internalType": "uint256",
          "name": "",
          "type": "uint256"
        }
      ],
      "stateMutability": "view",
      "type": "function"
    },
    {
      "inputs": [
        {
          "internalType": "address",
          "name": "start",
          "type": "address"
        },
        {
          "internalType": "uint256",
          "name": "pageSize",
          "type": "uint256"
        }
      ],
      "name": "getModulesPaginated",
      "outputs": [
        {
          "internalType": "address[]",
          "name": "array",
          "type": "address[]"
        },
        {
          "internalType": "address",
          "name": "next",
          "type": "address"
        }
      ],
      "stateMutability": "view",
      "type": "function"
    },
    {
      "inputs": [],
      "name": "getOwners",
      "outputs": [
        {
          "internalType": "address[]",
          "name": "",
          "type": "address[]"
        }
      ],
      "stateMutability": "view",
      "type": "function"
    },
    {
      "inputs": [
        {
          "internalType": "uint256",
          "name": "offset",
          "type": "uint256"
        },
        {
          "internalType": "uint256",
          "name": "length",
          "type": "uint256"
        }
      ],
      "name": "getStorageAt",
      "outputs": [
        {
          "internalType": "bytes",
          "name": "",
          "type": "bytes"
        }
      ],
      "stateMutability": "view",
      "type": "function"
    },
    {
      "inputs": [],
      "name": "getThreshold",
      "outputs": [
        {
          "internalType": "uint256",
          "name": "",
          "type": "uint256"
        }
      ],
      "stateMutability": "view",
      "type": "function"
    },
    {
      "inputs": [
        {
          "internalType": "address",
          "name": "to",
          "type": "address"
        },
        {
          "internalType": "uint256",
          "name": "value",
          "type": "uint256"
        },
        {
          "internalType": "bytes",
          "name": "data",
          "type": "bytes"
        },
        {
          "internalType": "enum Enum.Operation",
          "name": "operation",
          "type": "uint8"
        },
        {
          "internalType": "uint256",
          "name": "safeTxGas",
          "type": "uint256"
        },
        {
          "internalType": "uint256",
          "name": "baseGas",
          "type": "uint256"
        },
        {
          "internalType": "uint256",
          "name": "gasPrice",
          "type": "uint256"
        },
        {
          "internalType": "address",
          "name": "gasToken",
          "type": "address"
        },
        {
          "internalType": "address",
          "name": "refundReceiver",
          "type": "address"
        },
        {
          "internalType": "uint256",
          "name": "_nonce",
          "type": "uint256"
        }
      ],
      "name": "getTransactionHash",
      "outputs": [
        {
          "internalType": "bytes32",
          "name": "",
          "type": "bytes32"
        }
      ],
      "stateMutability": "view",
      "type": "function"
    },
    {
      "inputs": [
        {
          "internalType": "address",
          "name": "module",
          "type": "address"
        }
      ],
      "name": "isModuleEnabled",
      "outputs": [
        {
          "internalType": "bool",
          "name": "",
          "type": "bool"
        }
      ],
      "stateMutability": "view",
      "type": "function"
    },
    {
      "inputs": [
        {
          "internalType": "address",
          "name": "owner",
          "type": "address"
        }
      ],
      "name": "isOwner",
      "outputs": [
        {
          "internalType": "bool",
          "name": "",
          "type": "bool"
        }
      ],
      "stateMutability": "view",
      "type": "function"
    },
    {
      "inputs": [],
      "name": "nonce",
      "outputs": [
        {
          "internalType": "uint256",
          "name": "",
          "type": "uint256"
        }
      ],
      "stateMutability": "view",
      "type": "function"
    },
    {
      "inputs": [
        {
          "internalType": "address",
          "name": "prevOwner",
          "type": "address"
        },
        {
          "internalType": "address",
          "name": "owner",
          "type": "address"
        },
        {
          "internalType": "uint256",
          "name": "_threshold",
          "type": "uint256"
        }
      ],
      "name": "removeOwner",
      "outputs": [],
      "stateMutability": "nonpayable",
      "type": "function"
    },
    {
      "inputs": [
        {
          "internalType": "address",
          "name": "handler",
          "type": "address"
        }
      ],
      "name": "setFallbackHandler",
      "outputs": [],
      "stateMutability": "nonpayable",
      "type": "function"
    },
    {
      "inputs": [
        {
          "internalType": "address",
          "name": "guard",
          "type": "address"
        }
      ],
      "name": "setGuard",
      "outputs": [],
      "stateMutability": "nonpayable",
      "type": "function"
    },
    {
      "inputs": [
        {
          "internalType": "address[]",
          "name": "_owners",
          "type": "address[]"
        },
        {
          "internalType": "uint256",
          "name": "_threshold",
          "type": "uint256"
        },
        {
          "internalType": "address",
          "name": "to",
          "type": "address"
        },
        {
          "internalType": "bytes",
          "name": "data",
          "type": "bytes"
        },
        {
          "internalType": "address",
          "name": "fallbackHandler",
          "type": "address"
        },
        {
          "internalType": "address",
          "name": "paymentToken",
          "type": "address"
        },
        {
          "internalType": "uint256",
          "name": "payment",
          "type": "uint256"
        },
        {
          "internalType": "address payable",
          "name": "paymentReceiver",
          "type": "address"
        }
      ],
      "name": "setup",
      "outputs": [],
      "stateMutability": "nonpayable",
      "type": "function"
    },
    {
      "inputs": [
        {
          "internalType": "bytes32",
          "name": "",
          "type": "bytes32"
        }
      ],
      "name": "signedMessages",
      "outputs": [
        {
          "internalType": "uint256",
          "name": "",
          "type": "uint256"
        }
      ],
      "stateMutability": "view",
      "type": "function"
    },
    {
      "inputs": [
        {
          "internalType": "address",
          "name": "targetContract",
          "type": "address"
        },
        {
          "internalType": "bytes",
          "name": "calldataPayload",
          "type": "bytes"
        }
      ],
      "name": "simulateAndRevert",
      "outputs": [],
      "stateMutability": "nonpayable",
      "type": "function"
    },
    {
      "inputs": [
        {
          "internalType": "address",
          "name": "prevOwner",
          "type": "address"
        },
        {
          "internalType": "address",
          "name": "oldOwner",
          "type": "address"
        },
        {
          "internalType": "address",
          "name": "newOwner",
          "type": "address"
        }
      ],
      "name": "swapOwner",
      "outputs": [],
      "stateMutability": "nonpayable",
      "type": "function"
    },
    {
      "stateMutability": "payable",
      "type": "receive"
    }
  ],
  "bytecode": {
    "object": "0x608060405234801561001057600080fd5b5060016004556132b7806100256000396000f3fe6080604052600436106101d15760003560e01c8063affed0e0116100f7578063e19a9dd911610095578063f08a032311610064578063f08a0323146105f5578063f698da2514610615578063f8dc5dd91461062a578063ffa1ad741461064a5761020d565b8063e19a9dd914610580578063e318b52b146105a0578063e75235b8146105c0578063e86637db146105d55761020d565b8063cc2f8452116100d1578063cc2f8452146104f2578063d4d9bdcd14610520578063d8d11f7814610540578063e009cfde146105605761020d565b8063affed0e01461049c578063b4faba09146104b2578063b63e800d146104d25761020d565b80635624b25b1161016f5780636a7612021161013e5780636a7612021461040f5780637d83297414610422578063934f3a111461045a578063a0e67e2b1461047a5761020d565b80635624b25b146103755780635ae6bd37146103a2578063610b5925146103cf578063694e80c3146103ef5761020d565b80632f54bf6e116101ab5780632f54bf6e146102ea5780633408e4701461030a578063468721a7146103275780635229073f146103475761020d565b80630d582f131461027357806312fb68e0146102955780632d9ad53d146102b55761020d565b3661020d5760405134815233907f3d0ce9bfc3ed7d6862dbb28b2dea94561fe714a1b4d019aa8af39730d1ad7c3d9060200160405180910390a2005b34801561021957600080fd5b507f6c9a6c4a39284e37ed1cf53d337577d14212a4870fb976a4366c693b939918d580548061024457005b36600080373360601b365260008060143601600080855af190503d6000803e8061026d573d6000fd5b503d6000f35b34801561027f57600080fd5b5061029361028e3660046126b8565b61067b565b005b3480156102a157600080fd5b506102936102b0366004612787565b6107d3565b3480156102c157600080fd5b506102d56102d03660046127fc565b610c7b565b60405190151581526020015b60405180910390f35b3480156102f657600080fd5b506102d56103053660046127fc565b610cb6565b34801561031657600080fd5b50465b6040519081526020016102e1565b34801561033357600080fd5b506102d5610342366004612828565b610cee565b34801561035357600080fd5b50610367610362366004612828565b610d44565b6040516102e19291906128d8565b34801561038157600080fd5b506103956103903660046128f3565b610d7a565b6040516102e19190612915565b3480156103ae57600080fd5b506103196103bd366004612928565b60076020526000908152604090205481565b3480156103db57600080fd5b506102936103ea3660046127fc565b610e00565b3480156103fb57600080fd5b5061029361040a366004612928565b610f39565b6102d561041d36600461298a565b610fd7565b34801561042e57600080fd5b5061031961043d3660046126b8565b600860209081526000928352604080842090915290825290205481565b34801561046657600080fd5b50610293610475366004612a63565b61107f565b34801561048657600080fd5b5061048f6110c9565b6040516102e19190612b14565b3480156104a857600080fd5b5061031960055481565b3480156104be57600080fd5b506102936104cd366004612b27565b6111ba565b3480156104de57600080fd5b506102936104ed366004612b77565b6111dd565b3480156104fe57600080fd5b5061051261050d3660046126b8565b6112df565b6040516102e1929190612c6c565b34801561052c57600080fd5b5061029361053b366004612928565b61149b565b34801561054c57600080fd5b5061031961055b366004612c96565b611530565b34801561056c57600080fd5b5061029361057b366004612d57565b61155d565b34801561058c57600080fd5b5061029361059b3660046127fc565b61167f565b3480156105ac57600080fd5b506102936105bb366004612d90565b611795565b3480156105cc57600080fd5b50600454610319565b3480156105e157600080fd5b506103956105f0366004612c96565b611970565b34801561060157600080fd5b506102936106103660046127fc565b611a49565b34801561062157600080fd5b50610319611a91565b34801561063657600080fd5b50610293610645366004612ddb565b611ae8565b34801561065657600080fd5b5061039560405180604001604052806005815260200164312e342e3160d81b81525081565b610683611c53565b6001600160a01b038216158015906106a557506001600160a01b038216600114155b80156106ba57506001600160a01b0382163014155b6106df5760405162461bcd60e51b81526004016106d690612e1c565b60405180910390fd5b6001600160a01b0382811660009081526002602052604090205416156107175760405162461bcd60e51b81526004016106d690612e3b565b60026020527fe90b7bceb6e7df5418fb78d8ee546e97c83a08bbccc01a0644d599ccd2a7c2e080546001600160a01b038481166000818152604081208054939094166001600160a01b03199384161790935560018352835490911617909155600380549161078483612e70565b90915550506040516001600160a01b038316907f9465fa0c962cc76958e6373a993326400c1c94f8be2fe3a952adfa7f60b2ea2690600090a280600454146107cf576107cf81610f39565b5050565b6107de816041611c8c565b825110156108165760405162461bcd60e51b8152602060048201526005602482015264047533032360dc1b60448201526064016106d6565b6000808060008060005b86811015610c6f576041818102890160208101516040820151919092015160ff16955090935091506000849003610a2e57885160208a01208a1461088e5760405162461bcd60e51b8152602060048201526005602482015264475330323760d81b60448201526064016106d6565b919350839161089e876041611c8c565b8210156108d55760405162461bcd60e51b8152602060048201526005602482015264475330323160d81b60448201526064016106d6565b87516108e2836020611cc8565b11156109185760405162461bcd60e51b815260206004820152600560248201526423a998191960d91b60448201526064016106d6565b60208289018101518951909161093b908390610935908790611cc8565b90611cc8565b11156109715760405162461bcd60e51b8152602060048201526005602482015264475330323360d81b60448201526064016106d6565b6040516320c13b0b60e01b8082528a8501602001916001600160a01b038916906320c13b0b906109a7908f908690600401612e89565b602060405180830381865afa1580156109c4573d6000803e3d6000fd5b505050506040513d601f19601f820116820180604052508101906109e89190612eae565b6001600160e01b03191614610a275760405162461bcd60e51b815260206004820152600560248201526411d4cc0c8d60da1b60448201526064016106d6565b5050610bd5565b8360ff16600103610ab0579193508391336001600160a01b0384161480610a7757506001600160a01b03851660009081526008602090815260408083208d845290915290205415155b610aab5760405162461bcd60e51b8152602060048201526005602482015264475330323560d81b60448201526064016106d6565b610bd5565b601e8460ff161115610b75576040517f19457468657265756d205369676e6564204d6573736167653a0a3332000000006020820152603c81018b9052600190605c0160405160208183030381529060405280519060200120600486610b159190612ed8565b6040805160008152602081018083529390935260ff90911690820152606081018590526080810184905260a0016020604051602081039080840390855afa158015610b64573d6000803e3d6000fd5b505050602060405103519450610bd5565b6040805160008152602081018083528c905260ff861691810191909152606081018490526080810183905260019060a0016020604051602081039080840390855afa158015610bc8573d6000803e3d6000fd5b5050506020604051035194505b856001600160a01b0316856001600160a01b0316118015610c0f57506001600160a01b038581166000908152600260205260409020541615155b8015610c2557506001600160a01b038516600114155b610c595760405162461bcd60e51b815260206004820152600560248201526423a998191b60d91b60448201526064016106d6565b8495508080610c6790612e70565b915050610820565b50505050505050505050565b600060016001600160a01b03831614801590610cb057506001600160a01b038281166000908152600160205260409020541615155b92915050565b60006001600160a01b038216600114801590610cb05750506001600160a01b0390811660009081526002602052604090205416151590565b60007fb648d3644f584ed1c2232d53c46d87e693586486ad0d1175f8656013110b714e3386868686604051610d27959493929190612f29565b60405180910390a1610d3b85858585611ce4565b95945050505050565b60006060610d5486868686610cee565b915060405160203d0181016040523d81523d6000602083013e8091505094509492505050565b60606000610d89836020612f75565b67ffffffffffffffff811115610da157610da16126e4565b6040519080825280601f01601f191660200182016040528015610dcb576020820181803683370190505b50905060005b83811015610df8578481015460208083028401015280610df081612e70565b915050610dd1565b509392505050565b610e08611c53565b6001600160a01b03811615801590610e2a57506001600160a01b038116600114155b610e5e5760405162461bcd60e51b8152602060048201526005602482015264475331303160d81b60448201526064016106d6565b6001600160a01b038181166000908152600160205260409020541615610eae5760405162461bcd60e51b815260206004820152600560248201526423a998981960d91b60448201526064016106d6565b600160208190527fcc69885fda6bcc1a4ace058b4a62bf5e179ea78fd58a1ccd71c22cc9b688792f80546001600160a01b03848116600081815260408082208054949095166001600160a01b031994851617909455948552835490911681179092555190917fecdf3a3effea5783a3c4c2140e677577666428d44ed9d474a0b3a4c9943f844091a250565b610f41611c53565b600354811115610f635760405162461bcd60e51b81526004016106d690612f94565b6001811015610f9c5760405162461bcd60e51b815260206004820152600560248201526423a999181960d91b60448201526064016106d6565b60048190556040518181527f610f7ff2b304ae8903c3de74c60c6ab1f7d6226b3f52c5161905bb5ad4039c939060200160405180910390a150565b600554600454604080516020810193909352339083015260608281019190915260009160800160405160208183030381529060405290507f66753cd2356569ee081232e3be8909b950e0a76c1f8460c3a5e3c2be32b11bed8d8d8d8d8d8d8d8d8d8d8d8c6040516110539c9b9a99989796959493929190612fdc565b60405180910390a161106e8d8d8d8d8d8d8d8d8d8d8d611dbd565b9d9c50505050505050505050505050565b600454806110b75760405162461bcd60e51b8152602060048201526005602482015264475330303160d81b60448201526064016106d6565b6110c3848484846107d3565b50505050565b6060600060035467ffffffffffffffff8111156110e8576110e86126e4565b604051908082528060200260200182016040528015611111578160200160208202803683370190505b506001600090815260026020527fe90b7bceb6e7df5418fb78d8ee546e97c83a08bbccc01a0644d599ccd2a7c2e054919250906001600160a01b03165b6001600160a01b0381166001146111b2578083838151811061117257611172613073565b6001600160a01b039283166020918202929092018101919091529181166000908152600290925260409091205416816111aa81612e70565b92505061114e565b509092915050565b600080825160208401855af480600052503d6020523d600060403e60403d016000fd5b61121b8a8a808060200260200160405190810160405280939291908181526020018383602002808284376000920191909152508c9250612108915050565b6001600160a01b0384161561123357611233846122ee565b6112738787878080601f01602080910402602001604051908101604052809392919081815260200183838082843760009201919091525061235292505050565b811561128a5761128882600060018685612484565b505b336001600160a01b03167f141df868a6331af528e38c83b7aa03edc19be66e37ae67f9285bf4f8e3c6a1a88b8b8b8b896040516112cb959493929190613089565b60405180910390a250505050505050505050565b606060006001600160a01b038416600114806112ff57506112ff84610c7b565b6113335760405162461bcd60e51b8152602060048201526005602482015264475331303560d81b60448201526064016106d6565b6000831161136b5760405162461bcd60e51b815260206004820152600560248201526423a998981b60d91b60448201526064016106d6565b8267ffffffffffffffff811115611384576113846126e4565b6040519080825280602002602001820160405280156113ad578160200160208202803683370190505b506001600160a01b03808616600090815260016020526040812054929450911691505b6001600160a01b038216158015906113f257506001600160a01b038216600114155b80156113fd57508381105b15611458578183828151811061141557611415613073565b6001600160a01b0392831660209182029290920181019190915292811660009081526001909352604090922054909116908061145081612e70565b9150506113d0565b6001600160a01b03821660011461149057826114756001836130f5565b8151811061148557611485613073565b602002602001015191505b808352509250929050565b336000908152600260205260409020546001600160a01b03166114e85760405162461bcd60e51b8152602060048201526005602482015264047533033360dc1b60448201526064016106d6565b336000818152600860209081526040808320858452909152808220600190555183917ff2a0eb156472d1440255b0d7c1e19cc07115d1051fe605b0dce69acfec884d9c91a350565b60006115458c8c8c8c8c8c8c8c8c8c8c611970565b8051906020012090509b9a5050505050505050505050565b611565611c53565b6001600160a01b0381161580159061158757506001600160a01b038116600114155b6115bb5760405162461bcd60e51b8152602060048201526005602482015264475331303160d81b60448201526064016106d6565b6001600160a01b0382811660009081526001602052604090205481169082161461160f5760405162461bcd60e51b8152602060048201526005602482015264475331303360d81b60448201526064016106d6565b6001600160a01b03818116600081815260016020526040808220805487861684528284208054919096166001600160a01b0319918216179095558383528054909416909355915190917faab4fa2b463f581b2b32cb3b7e3b704b9ce37cc209b5fb4d77e593ace405427691a25050565b611687611c53565b6001600160a01b03811615611739576040516301ffc9a760e01b815263736bd41d60e11b60048201526001600160a01b038216906301ffc9a790602401602060405180830381865afa1580156116e1573d6000803e3d6000fd5b505050506040513d601f19601f820116820180604052508101906117059190613108565b6117395760405162461bcd60e51b8152602060048201526005602482015264047533330360dc1b60448201526064016106d6565b7f4a204f620c8c5ccdca3fd54d003badd85ba500436a431f0cbda4f558c93c34c88181556040516001600160a01b038316907f1151116914515bc0891ff9047a6cb32cf902546f83066499bcf8ba33d2353fa290600090a25050565b61179d611c53565b6001600160a01b038116158015906117bf57506001600160a01b038116600114155b80156117d457506001600160a01b0381163014155b6117f05760405162461bcd60e51b81526004016106d690612e1c565b6001600160a01b0381811660009081526002602052604090205416156118285760405162461bcd60e51b81526004016106d690612e3b565b6001600160a01b0382161580159061184a57506001600160a01b038216600114155b6118665760405162461bcd60e51b81526004016106d690612e1c565b6001600160a01b038381166000908152600260205260409020548116908316146118ba5760405162461bcd60e51b8152602060048201526005602482015264475332303560d81b60448201526064016106d6565b6001600160a01b03828116600081815260026020526040808220805486861680855283852080549288166001600160a01b03199384161790559589168452828420805482169096179095558383528054909416909355915190917ff8d49fc529812e9a7c5c50e69c20f0dccc0db8fa95c98bc58cc9a4f1c1299eaf91a26040516001600160a01b038216907f9465fa0c962cc76958e6373a993326400c1c94f8be2fe3a952adfa7f60b2ea2690600090a2505050565b606060007fbb8310d486368db6bd6f849402fdd73ad53d316b5a4b2644ad6efe0f941286d860001b8d8d8d8d6040516119aa92919061312a565b6040519081900381206119d0949392918e908e908e908e908e908e908e9060200161313a565b60408051601f1981840301815291905280516020909101209050601960f81b600160f81b6119fc611a91565b6040516001600160f81b031993841660208201529290911660218301526022820152604281018290526062016040516020818303038152906040529150509b9a5050505050505050505050565b611a51611c53565b611a5a816122ee565b6040516001600160a01b038216907f5ac6c46c93c8d0e53714ba3b53db3e7c046da994313d7ed0d192028bc7c228b090600090a250565b60007f47e79534a245952e8b16893a336b85a3d9ea9fa8c573f3d803afb92a794692184660408051602081019390935282015230606082015260800160405160208183030381529060405280519060200120905090565b611af0611c53565b806001600354611b0091906130f5565b1015611b1e5760405162461bcd60e51b81526004016106d690612f94565b6001600160a01b03821615801590611b4057506001600160a01b038216600114155b611b5c5760405162461bcd60e51b81526004016106d690612e1c565b6001600160a01b03838116600090815260026020526040902054811690831614611bb05760405162461bcd60e51b8152602060048201526005602482015264475332303560d81b60448201526064016106d6565b6001600160a01b03828116600081815260026020526040808220805488861684529183208054929095166001600160a01b03199283161790945591815282549091169091556003805491611c03836131a9565b90915550506040516001600160a01b038316907ff8d49fc529812e9a7c5c50e69c20f0dccc0db8fa95c98bc58cc9a4f1c1299eaf90600090a28060045414611c4e57611c4e81610f39565b505050565b333014611c8a5760405162461bcd60e51b8152602060048201526005602482015264475330333160d81b60448201526064016106d6565b565b600082600003611c9e57506000610cb0565b6000611caa8385612f75565b905082611cb785836131c0565b14611cc157600080fd5b9392505050565b600080611cd583856131e2565b905083811015611cc157600080fd5b600033600114801590611d0e5750336000908152600160205260409020546001600160a01b031615155b611d425760405162461bcd60e51b815260206004820152600560248201526411d4cc4c0d60da1b60448201526064016106d6565b611d518585858560001961258a565b90508015611d895760405133907f6895c13664aa4f67288b25d7a21d7aaa34916e355fb9b6fae0a139a9085becb890600090a2611db5565b60405133907facd2c8702804128fdb0db2bb49f6d127dd0181c13fd45dbfe16de0930e2bd37590600090a25b949350505050565b6000806000611dd78e8e8e8e8e8e8e8e8e8e600554611970565b600580549192506000611de983612e70565b9091555050805160208201209150611e0282828661107f565b506000611e2d7f4a204f620c8c5ccdca3fd54d003badd85ba500436a431f0cbda4f558c93c34c85490565b90506001600160a01b03811615611eb357806001600160a01b03166375f0bb528f8f8f8f8f8f8f8f8f8f8f336040518d63ffffffff1660e01b8152600401611e809c9b9a999897969594939291906131f5565b600060405180830381600087803b158015611e9a57600080fd5b505af1158015611eae573d6000803e3d6000fd5b505050505b611edf611ec28a6109c46131e2565b603f611ecf8c6040612f75565b611ed991906131c0565b906125cf565b611eeb906101f46131e2565b5a1015611f225760405162461bcd60e51b8152602060048201526005602482015264047533031360dc1b60448201526064016106d6565b60005a9050611f938f8f8f8f8080601f016020809104026020016040519081016040528093929190818152602001838380828437600081840152601f19601f820116905080830192505050505050508e8c600014611f80578e61258a565b6109c45a611f8e91906130f5565b61258a565b9350611fa05a82906125e6565b90508380611fad57508915155b80611fb757508715155b611feb5760405162461bcd60e51b8152602060048201526005602482015264475330313360d81b60448201526064016106d6565b6000881561200357612000828b8b8b8b612484565b90505b841561204857837f442e715f626346e8c54381002da614f62bee8d27386535b2521ec8540898556e8260405161203b91815260200190565b60405180910390a2612083565b837f23428b18acfb3ea64b08dc0c1d296ea9c09702c09083ca5272e64d115b687d238260405161207a91815260200190565b60405180910390a25b50506001600160a01b038116156120f757604051631264e26d60e31b81526004810183905283151560248201526001600160a01b03821690639327136890604401600060405180830381600087803b1580156120de57600080fd5b505af11580156120f2573d6000803e3d6000fd5b505050505b50509b9a5050505050505050505050565b600454156121405760405162461bcd60e51b8152602060048201526005602482015264047533230360dc1b60448201526064016106d6565b81518111156121615760405162461bcd60e51b81526004016106d690612f94565b600181101561219a5760405162461bcd60e51b815260206004820152600560248201526423a999181960d91b60448201526064016106d6565b600160005b83518110156122bb5760008482815181106121bc576121bc613073565b6020026020010151905060006001600160a01b0316816001600160a01b0316141580156121f357506001600160a01b038116600114155b801561220857506001600160a01b0381163014155b80156122265750806001600160a01b0316836001600160a01b031614155b6122425760405162461bcd60e51b81526004016106d690612e1c565b6001600160a01b03818116600090815260026020526040902054161561227a5760405162461bcd60e51b81526004016106d690612e3b565b6001600160a01b03928316600090815260026020526040902080546001600160a01b03191693821693909317909255806122b381612e70565b91505061219f565b506001600160a01b0316600090815260026020526040902080546001600160a01b03191660011790559051600355600455565b306001600160a01b0382160361232e5760405162461bcd60e51b8152602060048201526005602482015264047533430360dc1b60448201526064016106d6565b7f6c9a6c4a39284e37ed1cf53d337577d14212a4870fb976a4366c693b939918d555565b600160008190526020527fcc69885fda6bcc1a4ace058b4a62bf5e179ea78fd58a1ccd71c22cc9b688792f546001600160a01b0316156123bc5760405162461bcd60e51b8152602060048201526005602482015264047533130360dc1b60448201526064016106d6565b6001600081905260208190527fcc69885fda6bcc1a4ace058b4a62bf5e179ea78fd58a1ccd71c22cc9b688792f80546001600160a01b03191690911790556001600160a01b038216156107cf57813b61243f5760405162461bcd60e51b815260206004820152600560248201526423a998181960d91b60448201526064016106d6565b61245082600083600160001961258a565b6107cf5760405162461bcd60e51b8152602060048201526005602482015264047533030360dc1b60448201526064016106d6565b6000806001600160a01b0383161561249c578261249e565b325b90506001600160a01b038416612531576124d03a86106124be573a6124c0565b855b6124ca8989611cc8565b90611c8c565b6040519092506001600160a01b0382169083156108fc029084906000818181858888f1935050505061252c5760405162461bcd60e51b8152602060048201526005602482015264475330313160d81b60448201526064016106d6565b612580565b61253f856124ca8989611cc8565b915061254c848284612601565b6125805760405162461bcd60e51b815260206004820152600560248201526423a998189960d91b60448201526064016106d6565b5095945050505050565b600060018360018111156125a0576125a0612ef1565b036125b8576000808551602087018986f49050610d3b565b600080855160208701888a87f19695505050505050565b6000818310156125df5781611cc1565b5090919050565b6000828211156125f557600080fd5b6000611db583856130f5565b604080516001600160a01b03841660248201526044808201849052825180830390910181526064909101909152602080820180516001600160e01b031663a9059cbb60e01b1781528251600093929184919082896127105a03f13d8015612673576020811461267b5760009350612686565b819350612686565b600051158215171593505b5050509392505050565b6001600160a01b03811681146126a557600080fd5b50565b80356126b381612690565b919050565b600080604083850312156126cb57600080fd5b82356126d681612690565b946020939093013593505050565b634e487b7160e01b600052604160045260246000fd5b600082601f83011261270b57600080fd5b813567ffffffffffffffff80821115612726576127266126e4565b604051601f8301601f19908116603f0116810190828211818310171561274e5761274e6126e4565b8160405283815286602085880101111561276757600080fd5b836020870160208301376000602085830101528094505050505092915050565b6000806000806080858703121561279d57600080fd5b84359350602085013567ffffffffffffffff808211156127bc57600080fd5b6127c8888389016126fa565b945060408701359150808211156127de57600080fd5b506127eb878288016126fa565b949793965093946060013593505050565b60006020828403121561280e57600080fd5b8135611cc181612690565b8035600281106126b357600080fd5b6000806000806080858703121561283e57600080fd5b843561284981612690565b935060208501359250604085013567ffffffffffffffff81111561286c57600080fd5b612878878288016126fa565b92505061288760608601612819565b905092959194509250565b6000815180845260005b818110156128b85760208185018101518683018201520161289c565b506000602082860101526020601f19601f83011685010191505092915050565b8215158152604060208201526000611db56040830184612892565b6000806040838503121561290657600080fd5b50508035926020909101359150565b602081526000611cc16020830184612892565b60006020828403121561293a57600080fd5b5035919050565b60008083601f84011261295357600080fd5b50813567ffffffffffffffff81111561296b57600080fd5b60208301915083602082850101111561298357600080fd5b9250929050565b60008060008060008060008060008060006101408c8e0312156129ac57600080fd5b6129b58c6126a8565b9a5060208c0135995067ffffffffffffffff8060408e013511156129d857600080fd5b6129e88e60408f01358f01612941565b909a5098506129f960608e01612819565b975060808d0135965060a08d0135955060c08d01359450612a1c60e08e016126a8565b9350612a2b6101008e016126a8565b9250806101208e01351115612a3f57600080fd5b50612a518d6101208e01358e016126fa565b90509295989b509295989b9093969950565b600080600060608486031215612a7857600080fd5b83359250602084013567ffffffffffffffff80821115612a9757600080fd5b612aa3878388016126fa565b93506040860135915080821115612ab957600080fd5b50612ac6868287016126fa565b9150509250925092565b600081518084526020808501945080840160005b83811015612b095781516001600160a01b031687529582019590820190600101612ae4565b509495945050505050565b602081526000611cc16020830184612ad0565b60008060408385031215612b3a57600080fd5b8235612b4581612690565b9150602083013567ffffffffffffffff811115612b6157600080fd5b612b6d858286016126fa565b9150509250929050565b6000806000806000806000806000806101008b8d031215612b9757600080fd5b8a3567ffffffffffffffff80821115612baf57600080fd5b818d0191508d601f830112612bc357600080fd5b813581811115612bd257600080fd5b8e60208260051b8501011115612be757600080fd5b60208381019d50909b508d01359950612c0260408e016126a8565b985060608d0135915080821115612c1857600080fd5b50612c258d828e01612941565b9097509550612c38905060808c016126a8565b9350612c4660a08c016126a8565b925060c08b01359150612c5b60e08c016126a8565b90509295989b9194979a5092959850565b604081526000612c7f6040830185612ad0565b905060018060a01b03831660208301529392505050565b60008060008060008060008060008060006101408c8e031215612cb857600080fd5b8b35612cc381612690565b9a5060208c0135995060408c013567ffffffffffffffff811115612ce657600080fd5b612cf28e828f01612941565b909a509850612d05905060608d01612819565b965060808c0135955060a08c0135945060c08c0135935060e08c0135612d2a81612690565b92506101008c0135612d3b81612690565b809250506101208c013590509295989b509295989b9093969950565b60008060408385031215612d6a57600080fd5b8235612d7581612690565b91506020830135612d8581612690565b809150509250929050565b600080600060608486031215612da557600080fd5b8335612db081612690565b92506020840135612dc081612690565b91506040840135612dd081612690565b809150509250925092565b600080600060608486031215612df057600080fd5b8335612dfb81612690565b92506020840135612e0b81612690565b929592945050506040919091013590565b602080825260059082015264475332303360d81b604082015260600190565b60208082526005908201526411d4cc8c0d60da1b604082015260600190565b634e487b7160e01b600052601160045260246000fd5b600060018201612e8257612e82612e5a565b5060010190565b604081526000612e9c6040830185612892565b8281036020840152610d3b8185612892565b600060208284031215612ec057600080fd5b81516001600160e01b031981168114611cc157600080fd5b60ff8281168282160390811115610cb057610cb0612e5a565b634e487b7160e01b600052602160045260246000fd5b60028110612f2557634e487b7160e01b600052602160045260246000fd5b9052565b6001600160a01b038681168252851660208201526040810184905260a060608201819052600090612f5c90830185612892565b9050612f6b6080830184612f07565b9695505050505050565b6000816000190483118215151615612f8f57612f8f612e5a565b500290565b602080825260059082015264475332303160d81b604082015260600190565b81835281816020850137506000828201602090810191909152601f909101601f19169091010190565b600060018060a01b03808f1683528d6020840152610160604084015261300761016084018d8f612fb3565b613014606085018d612f07565b8a60808501528960a08501528860c085015281881660e085015281871661010085015283810361012085015261304a8187612892565b9150508281036101408401526130608185612892565b9f9e505050505050505050505050505050565b634e487b7160e01b600052603260045260246000fd5b6080808252810185905260008660a08301825b888110156130cc5782356130af81612690565b6001600160a01b031682526020928301929091019060010161309c565b50602084019690965250506001600160a01b039283166040820152911660609091015292915050565b81810381811115610cb057610cb0612e5a565b60006020828403121561311a57600080fd5b81518015158114611cc157600080fd5b8183823760009101908152919050565b8b81526001600160a01b038b81166020830152604082018b9052606082018a905261016082019061316e608084018b612f07565b60a083019890985260c082019690965260e0810194909452918516610100840152909316610120820152610140019190915295945050505050565b6000816131b8576131b8612e5a565b506000190190565b6000826131dd57634e487b7160e01b600052601260045260246000fd5b500490565b80820180821115610cb057610cb0612e5a565b600060018060a01b03808f1683528d6020840152610160604084015261322061016084018d8f612fb3565b61322d606085018d612f07565b8a60808501528960a08501528860c085015281881660e08501528187166101008501528381036101208501526132638187612892565b925050808416610140840152509d9c5050505050505050505050505056fea2646970667358221220d2769be1efe214abd157a786c1844688f970c25788ba4580f6f1d62148d7ff0764736f6c63430008100033",
    "linkReferences": {}
  },
  "methodIdentifiers": {
    "VERSION()": "ffa1ad74",
    "addOwnerWithThreshold(address,uint256)": "0d582f13",
    "approveHash(bytes32)": "d4d9bdcd",
    "approvedHashes(address,bytes32)": "7d832974",
    "changeThreshold(uint256)": "694e80c3",
    "checkNSignatures(bytes32,bytes,bytes,uint256)": "12fb68e0",
    "checkSignatures(bytes32,bytes,bytes)": "934f3a11",
    "disableModule(address,address)": "e009cfde",
    "domainSeparator()": "f698da25",
    "enableModule(address)": "610b5925",
    "encodeTransactionData(address,uint256,bytes,uint8,uint256,uint256,uint256,address,address,uint256)": "e86637db",
    "execTransaction(address,uint256,bytes,uint8,uint256,uint256,uint256,address,address,bytes)": "6a761202",
    "execTransactionFromModule(address,uint256,bytes,uint8)": "468721a7",
    "execTransactionFromModuleReturnData(address,uint256,bytes,uint8)": "5229073f",
    "getChainId()": "3408e470",
    "getModulesPaginated(address,uint256)": "cc2f8452",
    "getOwners()": "a0e67e2b",
    "getStorageAt(uint256,uint256)": "5624b25b",
    "getThreshold()": "e75235b8",
    "getTransactionHash(address,uint256,bytes,uint8,uint256,uint256,uint256,address,address,uint256)": "d8d11f78",
    "isModuleEnabled(address)": "2d9ad53d",
    "isOwner(address)": "2f54bf6e",
    "nonce()": "affed0e0",
    "removeOwner(address,address,uint256)": "f8dc5dd9",
    "setFallbackHandler(address)": "f08a0323",
    "setGuard(address)": "e19a9dd9",
    "setup(address[],uint256,address,bytes,address,address,uint256,address)": "b63e800d",
    "signedMessages(bytes32)": "5ae6bd37",
    "simulateAndRevert(address,bytes)": "b4faba09",
    "swapOwner(address,address,address)": "e318b52b"
  },
  "id": 1
}