{
  "abi": [
    {
      "inputs": [],
      "stateMutability": "nonpayable",
      "type": "constructor"
    },
    {
      "anonymous": false,
      "inputs": [
        {
          "indexed": true,
          "internalType": "address",
          "name": "owner",
          "type": "address"
        }
      ],
      "name": "AddedOwner",
      "type": "event"
    },
    {
      "anonymous": false,
      "inputs": [
        {
          "indexed": true,
          "internalType": "bytes32",
          "name": "approvedHash",
          "type": "bytes32"
        },
        {
          "indexed": true,
          "internalType": "address",
          "name": "owner",
          "type": "address"
        }
      ],
      "name": "ApproveHash",
      "type": "event"
    },
    {
      "anonymous": false,
      "inputs": [
        {
          "indexed": true,
          "internalType": "address",
          "name": "handler",
          "type": "address"
        }
      ],
      "name": "ChangedFallbackHandler",
      "type": "event"
    },
    {
      "anonymous": false,
      "inputs": [
        {
          "indexed": true,
          "internalType": "address",
          "name": "guard",
          "type": "address"
        }
      ],
      "name": "ChangedGuard",
      "type": "event"
    },
    {
      "anonymous": false,
      "inputs": [
        {
          "indexed": false,
          "internalType": "uint256",
          "name": "threshold",
          "type": "uint256"
        }
      ],
      "name": "ChangedThreshold",
      "type": "event"
    },
    {
      "anonymous": false,
      "inputs": [
        {
          "indexed": true,
          "internalType": "address",
          "name": "module",
          "type": "address"
        }
      ],
      "name": "DisabledModule",
      "type": "event"
    },
    {
      "anonymous": false,
      "inputs": [
        {
          "indexed": true,
          "internalType": "address",
          "name": "module",
          "type": "address"
        }
      ],
      "name": "EnabledModule",
      "type": "event"
    },
    {
      "anonymous": false,
      "inputs": [
        {
          "indexed": true,
          "internalType": "bytes32",
          "name": "txHash",
          "type": "bytes32"
        },
        {
          "indexed": false,
          "internalType": "uint256",
          "name": "payment",
          "type": "uint256"
        }
      ],
      "name": "ExecutionFailure",
      "type": "event"
    },
    {
      "anonymous": false,
      "inputs": [
        {
          "indexed": true,
          "internalType": "address",
          "name": "module",
          "type": "address"
        }
      ],
      "name": "ExecutionFromModuleFailure",
      "type": "event"
    },
    {
      "anonymous": false,
      "inputs": [
        {
          "indexed": true,
          "internalType": "address",
          "name": "module",
          "type": "address"
        }
      ],
      "name": "ExecutionFromModuleSuccess",
      "type": "event"
    },
    {
      "anonymous": false,
      "inputs": [
        {
          "indexed": true,
          "internalType": "bytes32",
          "name": "txHash",
          "type": "bytes32"
        },
        {
          "indexed": false,
          "internalType": "uint256",
          "name": "payment",
          "type": "uint256"
        }
      ],
      "name": "ExecutionSuccess",
      "type": "event"
    },
    {
      "anonymous": false,
      "inputs": [
        {
          "indexed": true,
          "internalType": "address",
          "name": "owner",
          "type": "address"
        }
      ],
      "name": "RemovedOwner",
      "type": "event"
    },
    {
      "anonymous": false,
      "inputs": [
        {
          "indexed": true,
          "internalType": "address",
          "name": "sender",
          "type": "address"
        },
        {
          "indexed": false,
          "internalType": "uint256",
          "name": "value",
          "type": "uint256"
        }
      ],
      "name": "SafeReceived",
      "type": "event"
    },
    {
      "anonymous": false,
      "inputs": [
        {
          "indexed": true,
          "internalType": "address",
          "name": "initiator",
          "type": "address"
        },
        {
          "indexed": false,
          "internalType": "address[]",
          "name": "owners",
          "type": "address[]"
        },
        {
          "indexed": false,
          "internalType": "uint256",
          "name": "threshold",
          "type": "uint256"
        },
        {
          "indexed": false,
          "internalType": "address",
          "name": "initializer",
          "type": "address"
        },
        {
          "indexed": false,
          "internalType": "address",
          "name": "fallbackHandler",
          "type": "address"
        }
      ],
      "name": "SafeSetup",
      "type": "event"
    },
    {
      "anonymous": false,
      "inputs": [
        {
          "indexed": true,
          "internalType": "bytes32",
          "name": "msgHash",
          "type": "bytes32"
        }
      ],
      "name": "SignMsg",
      "type": "event"
    },
    {
      "stateMutability": "nonpayable",
      "type": "fallback"
    },
    {
      "inputs": [],
      "name": "VERSION",
      "outputs": [
        {
          "internalType": "string",
          "name": "",
          "type": "string"
        }
      ],
      "stateMutability": "view",
      "type": "function"
    },
    {
      "inputs": [
        {
          "internalType": "address",
          "name": "owner",
          "type": "address"
        },
        {
          "internalType": "uint256",
          "name": "_threshold",
          "type": "uint256"
        }
      ],
      "name": "addOwnerWithThreshold",
      "outputs": [],
      "stateMutability": "nonpayable",
      "type": "function"
    },
    {
      "inputs": [
        {
          "internalType": "bytes32",
          "name": "hashToApprove",
          "type": "bytes32"
        }
      ],
      "name": "approveHash",
      "outputs": [],
      "stateMutability": "nonpayable",
      "type": "function"
    },
    {
      "inputs": [
        {
          "internalType": "address",
          "name": "",
          "type": "address"
        },
        {
          "internalType": "bytes32",
          "name": "",
          "type": "bytes32"
        }
      ],
      "name": "approvedHashes",
      "outputs": [
        {
          "internalType": "uint256",
          "name": "",
          "type": "uint256"
        }
      ],
      "stateMutability": "view",
      "type": "function"
    },
    {
      "inputs": [
        {
          "internalType": "uint256",
          "name": "_threshold",
          "type": "uint256"
        }
      ],
      "name": "changeThreshold",
      "outputs": [],
      "stateMutability": "nonpayable",
      "type": "function"
    },
    {
      "inputs": [
        {
          "internalType": "bytes32",
          "name": "dataHash",
          "type": "bytes32"
        },
        {
          "internalType": "bytes",
          "name": "data",
          "type": "bytes"
        },
        {
          "internalType": "bytes",
          "name": "signatures",
          "type": "bytes"
        },
        {
          "internalType": "uint256",
          "name": "requiredSignatures",
          "type": "uint256"
        }
      ],
      "name": "checkNSignatures",
      "outputs": [],
      "stateMutability": "view",
      "type": "function"
    },
    {
      "inputs": [
        {
          "internalType": "bytes32",
          "name": "dataHash",
          "type": "bytes32"
        },
        {
          "internalType": "bytes",
          "name": "data",
          "type": "bytes"
        },
        {
          "internalType": "bytes",
          "name": "signatures",
          "type": "bytes"
        }
      ],
      "name": "checkSignatures",
      "outputs": [],
      "stateMutability": "view",
      "type": "function"
    },
    {
      "inputs": [
        {
          "internalType": "address",
          "name": "prevModule",
          "type": "address"
        },
        {
          "internalType": "address",
          "name": "module",
          "type": "address"
        }
      ],
      "name": "disableModule",
      "outputs": [],
      "stateMutability": "nonpayable",
      "type": "function"
    },
    {
      "inputs": [],
      "name": "domainSeparator",
      "outputs": [
        {
          "internalType": "bytes32",
          "name": "",
          "type": "bytes32"
        }
      ],
      "stateMutability": "view",
      "type": "function"
    },
    {
      "inputs": [
        {
          "internalType": "address",
          "name": "module",
          "type": "address"
        }
      ],
      "name": "enableModule",
      "outputs": [],
      "stateMutability": "nonpayable",
      "type": "function"
    },
    {
      "inputs": [
        {
          "internalType": "address",
          "name": "to",
          "type": "address"
        },
        {
          "internalType": "uint256",
          "name": "value",
          "type": "uint256"
        },
        {
          "internalType": "bytes",
          "name": "data",
          "type": "bytes"
        },
        {
          "internalType": "enum Enum.Operation",
          "name": "operation",
          "type": "uint8"
        },
        {
          "internalType": "uint256",
          "name": "safeTxGas",
          "type": "uint256"
        },
        {
          "internalType": "uint256",
          "name": "baseGas",
          "type": "uint256"
        },
        {
          "internalType": "uint256",
          "name": "gasPrice",
          "type": "uint256"
        },
        {
          "internalType": "address",
          "name": "gasToken",
          "type": "address"
        },
        {
          "internalType": "address",
          "name": "refundReceiver",
          "type": "address"
        },
        {
          "internalType": "uint256",
          "name": "_nonce",
          "type": "uint256"
        }
      ],
      "name": "encodeTransactionData",
      "outputs": [
        {
          "internalType": "bytes",
          "name": "",
          "type": "bytes"
        }
      ],
      "stateMutability": "view",
      "type": "function"
    },
    {
      "inputs": [
        {
          "internalType": "address",
          "name": "to",
          "type": "address"
        },
        {
          "internalType": "uint256",
          "name": "value",
          "type": "uint256"
        },
        {
          "internalType": "bytes",
          "name": "data",
          "type": "bytes"
        },
        {
          "internalType": "enum Enum.Operation",
          "name": "operation",
          "type": "uint8"
        },
        {
          "internalType": "uint256",
          "name": "safeTxGas",
          "type": "uint256"
        },
        {
          "internalType": "uint256",
          "name": "baseGas",
          "type": "uint256"
        },
        {
          "internalType": "uint256",
          "name": "gasPrice",
          "type": "uint256"
        },
        {
          "internalType": "address",
          "name": "gasToken",
          "type": "address"
        },
        {
          "internalType": "address payable",
          "name": "refundReceiver",
          "type": "address"
        },
        {
          "internalType": "bytes",
          "name": "signatures",
          "type": "bytes"
        }
      ],
      "name": "execTransaction",
      "outputs": [
        {
          "internalType": "bool",
          "name": "success",
          "type": "bool"
        }
      ],
      "stateMutability": "payable",
      "type": "function"
    },
    {
      "inputs": [
        {
          "internalType": "address",
          "name": "to",
          "type": "address"
        },
        {
          "internalType": "uint256",
          "name": "value",
          "type": "uint256"
        },
        {
          "internalType": "bytes",
          "name": "data",
          "type": "bytes"
        },
        {
          "internalType": "enum Enum.Operation",
          "name": "operation",
          "type": "uint8"
        }
      ],
      "name": "execTransactionFromModule",
      "outputs": [
        {
          "internalType": "bool",
          "name": "success",
          "type": "bool"
        }
      ],
      "stateMutability": "nonpayable",
      "type": "function"
    },
    {
      "inputs": [
        {
          "internalType": "address",
          "name": "to",
          "type": "address"
        },
        {
          "internalType": "uint256",
          "name": "value",
          "type": "uint256"
        },
        {
          "internalType": "bytes",
          "name": "data",
          "type": "bytes"
        },
        {
          "internalType": "enum Enum.Operation",
          "name": "operation",
          "type": "uint8"
        }
      ],
      "name": "execTransactionFromModuleReturnData",
      "outputs": [
        {
          "internalType": "bool",
          "name": "success",
          "type": "bool"
        },
        {
          "internalType": "bytes",
          "name": "returnData",
          "type": "bytes"
        }
      ],
      "stateMutability": "nonpayable",
      "type": "function"
    },
    {
      "inputs": [],
      "name": "getChainId",
      "outputs": [
        {
          "internalType": "uint256",
          "name": "",
          "type": "uint256"
        }
      ],
      "stateMutability": "view",
      "type": "function"
    },
    {
      "inputs": [
        {
          "internalType": "address",
          "name": "start",
          "type": "address"
        },
        {
          "internalType": "uint256",
          "name": "pageSize",
          "type": "uint256"
        }
      ],
      "name": "getModulesPaginated",
      "outputs": [
        {
          "internalType": "address[]",
          "name": "array",
          "type": "address[]"
        },
        {
          "internalType": "address",
          "name": "next",
          "type": "address"
        }
      ],
      "stateMutability": "view",
      "type": "function"
    },
    {
      "inputs": [],
      "name": "getOwners",
      "outputs": [
        {
          "internalType": "address[]",
          "name": "",
          "type": "address[]"
        }
      ],
      "stateMutability": "view",
      "type": "function"
    },
    {
      "inputs": [
        {
          "internalType": "uint256",
          "name": "offset",
          "type": "uint256"
        },
        {
          "internalType": "uint256",
          "name": "length",
          "type": "uint256"
        }
      ],
      "name": "getStorageAt",
      "outputs": [
        {
          "internalType": "bytes",
          "name": "",
          "type": "bytes"
        }
      ],
      "stateMutability": "view",
      "type": "function"
    },
    {
      "inputs": [],
      "name": "getThreshold",
      "outputs": [
        {
          "internalType": "uint256",
          "name": "",
          "type": "uint256"
        }
      ],
      "stateMutability": "view",
      "type": "function"
    },
    {
      "inputs": [
        {
          "internalType": "address",
          "name": "to",
          "type": "address"
        },
        {
          "internalType": "uint256",
          "name": "value",
          "type": "uint256"
        },
        {
          "internalType": "bytes",
          "name": "data",
          "type": "bytes"
        },
        {
          "internalType": "enum Enum.Operation",
          "name": "operation",
          "type": "uint8"
        },
        {
          "internalType": "uint256",
          "name": "safeTxGas",
          "type": "uint256"
        },
        {
          "internalType": "uint256",
          "name": "baseGas",
          "type": "uint256"
        },
        {
          "internalType": "uint256",
          "name": "gasPrice",
          "type": "uint256"
        },
        {
          "internalType": "address",
          "name": "gasToken",
          "type": "address"
        },
        {
          "internalType": "address",
          "name": "refundReceiver",
          "type": "address"
        },
        {
          "internalType": "uint256",
          "name": "_nonce",
          "type": "uint256"
        }
      ],
      "name": "getTransactionHash",
      "outputs": [
        {
          "internalType": "bytes32",
          "name": "",
          "type": "bytes32"
        }
      ],
      "stateMutability": "view",
      "type": "function"
    },
    {
      "inputs": [
        {
          "internalType": "address",
          "name": "module",
          "type": "address"
        }
      ],
      "name": "isModuleEnabled",
      "outputs": [
        {
          "internalType": "bool",
          "name": "",
          "type": "bool"
        }
      ],
      "stateMutability": "view",
      "type": "function"
    },
    {
      "inputs": [
        {
          "internalType": "address",
          "name": "owner",
          "type": "address"
        }
      ],
      "name": "isOwner",
      "outputs": [
        {
          "internalType": "bool",
          "name": "",
          "type": "bool"
        }
      ],
      "stateMutability": "view",
      "type": "function"
    },
    {
      "inputs": [],
      "name": "nonce",
      "outputs": [
        {
          "internalType": "uint256",
          "name": "",
          "type": "uint256"
        }
      ],
      "stateMutability": "view",
      "type": "function"
    },
    {
      "inputs": [
        {
          "internalType": "address",
          "name": "prevOwner",
          "type": "address"
        },
        {
          "internalType": "address",
          "name": "owner",
          "type": "address"
        },
        {
          "internalType": "uint256",
          "name": "_threshold",
          "type": "uint256"
        }
      ],
      "name": "removeOwner",
      "outputs": [],
      "stateMutability": "nonpayable",
      "type": "function"
    },
    {
      "inputs": [
        {
          "internalType": "address",
          "name": "handler",
          "type": "address"
        }
      ],
      "name": "setFallbackHandler",
      "outputs": [],
      "stateMutability": "nonpayable",
      "type": "function"
    },
    {
      "inputs": [
        {
          "internalType": "address",
          "name": "guard",
          "type": "address"
        }
      ],
      "name": "setGuard",
      "outputs": [],
      "stateMutability": "nonpayable",
      "type": "function"
    },
    {
      "inputs": [
        {
          "internalType": "address[]",
          "name": "_owners",
          "type": "address[]"
        },
        {
          "internalType": "uint256",
          "name": "_threshold",
          "type": "uint256"
        },
        {
          "internalType": "address",
          "name": "to",
          "type": "address"
        },
        {
          "internalType": "bytes",
          "name": "data",
          "type": "bytes"
        },
        {
          "internalType": "address",
          "name": "fallbackHandler",
          "type": "address"
        },
        {
          "internalType": "address",
          "name": "paymentToken",
          "type": "address"
        },
        {
          "internalType": "uint256",
          "name": "payment",
          "type": "uint256"
        },
        {
          "internalType": "address payable",
          "name": "paymentReceiver",
          "type": "address"
        }
      ],
      "name": "setup",
      "outputs": [],
      "stateMutability": "nonpayable",
      "type": "function"
    },
    {
      "inputs": [
        {
          "internalType": "bytes32",
          "name": "",
          "type": "bytes32"
        }
      ],
      "name": "signedMessages",
      "outputs": [
        {
          "internalType": "uint256",
          "name": "",
          "type": "uint256"
        }
      ],
      "stateMutability": "view",
      "type": "function"
    },
    {
      "inputs": [
        {
          "internalType": "address",
          "name": "targetContract",
          "type": "address"
        },
        {
          "internalType": "bytes",
          "name": "calldataPayload",
          "type": "bytes"
        }
      ],
      "name": "simulateAndRevert",
      "outputs": [],
      "stateMutability": "nonpayable",
      "type": "function"
    },
    {
      "inputs": [
        {
          "internalType": "address",
          "name": "prevOwner",
          "type": "address"
        },
        {
          "internalType": "address",
          "name": "oldOwner",
          "type": "address"
        },
        {
          "internalType": "address",
          "name": "newOwner",
          "type": "address"
        }
      ],
      "name": "swapOwner",
      "outputs": [],
      "stateMutability": "nonpayable",
      "type": "function"
    },
    {
      "stateMutability": "payable",
      "type": "receive"
    }
  ],
  "bytecode": {
    "object": "0x608060405234801561001057600080fd5b5060016004556130e8806100256000396000f3fe6080604052600436106101d15760003560e01c8063affed0e0116100f7578063e19a9dd911610095578063f08a032311610064578063f08a0323146105f5578063f698da2514610615578063f8dc5dd91461062a578063ffa1ad741461064a5761020d565b8063e19a9dd914610580578063e318b52b146105a0578063e75235b8146105c0578063e86637db146105d55761020d565b8063cc2f8452116100d1578063cc2f8452146104f2578063d4d9bdcd14610520578063d8d11f7814610540578063e009cfde146105605761020d565b8063affed0e01461049c578063b4faba09146104b2578063b63e800d146104d25761020d565b80635624b25b1161016f5780636a7612021161013e5780636a7612021461040f5780637d83297414610422578063934f3a111461045a578063a0e67e2b1461047a5761020d565b80635624b25b146103755780635ae6bd37146103a2578063610b5925146103cf578063694e80c3146103ef5761020d565b80632f54bf6e116101ab5780632f54bf6e146102ea5780633408e4701461030a578063468721a7146103275780635229073f146103475761020d565b80630d582f131461027357806312fb68e0146102955780632d9ad53d146102b55761020d565b3661020d5760405134815233907f3d0ce9bfc3ed7d6862dbb28b2dea94561fe714a1b4d019aa8af39730d1ad7c3d9060200160405180910390a2005b34801561021957600080fd5b507f6c9a6c4a39284e37ed1cf53d337577d14212a4870fb976a4366c693b939918d580548061024457005b36600080373360601b365260008060143601600080855af190503d6000803e8061026d573d6000fd5b503d6000f35b34801561027f57600080fd5b5061029361028e3660046125bc565b61067b565b005b3480156102a157600080fd5b506102936102b036600461268b565b6107d3565b3480156102c157600080fd5b506102d56102d0366004612700565b610c7b565b60405190151581526020015b60405180910390f35b3480156102f657600080fd5b506102d5610305366004612700565b610cb6565b34801561031657600080fd5b50465b6040519081526020016102e1565b34801561033357600080fd5b506102d561034236600461272c565b610cee565b34801561035357600080fd5b5061036761036236600461272c565b610dc7565b6040516102e19291906127dc565b34801561038157600080fd5b506103956103903660046127f7565b610dfd565b6040516102e19190612819565b3480156103ae57600080fd5b506103196103bd36600461282c565b60076020526000908152604090205481565b3480156103db57600080fd5b506102936103ea366004612700565b610e83565b3480156103fb57600080fd5b5061029361040a36600461282c565b610fbc565b6102d561041d36600461288e565b61105a565b34801561042e57600080fd5b5061031961043d3660046125bc565b600860209081526000928352604080842090915290825290205481565b34801561046657600080fd5b50610293610475366004612967565b6113a5565b34801561048657600080fd5b5061048f6113ef565b6040516102e19190612a18565b3480156104a857600080fd5b5061031960055481565b3480156104be57600080fd5b506102936104cd366004612a2b565b6114e0565b3480156104de57600080fd5b506102936104ed366004612a7b565b611503565b3480156104fe57600080fd5b5061051261050d3660046125bc565b611605565b6040516102e1929190612b70565b34801561052c57600080fd5b5061029361053b36600461282c565b6117c1565b34801561054c57600080fd5b5061031961055b366004612b9a565b611856565b34801561056c57600080fd5b5061029361057b366004612c5b565b611883565b34801561058c57600080fd5b5061029361059b366004612700565b6119a5565b3480156105ac57600080fd5b506102936105bb366004612c94565b611abb565b3480156105cc57600080fd5b50600454610319565b3480156105e157600080fd5b506103956105f0366004612b9a565b611c96565b34801561060157600080fd5b50610293610610366004612700565b611d6f565b34801561062157600080fd5b50610319611db7565b34801561063657600080fd5b50610293610645366004612cdf565b611e0e565b34801561065657600080fd5b5061039560405180604001604052806005815260200164312e342e3160d81b81525081565b610683611f79565b6001600160a01b038216158015906106a557506001600160a01b038216600114155b80156106ba57506001600160a01b0382163014155b6106df5760405162461bcd60e51b81526004016106d690612d20565b60405180910390fd5b6001600160a01b0382811660009081526002602052604090205416156107175760405162461bcd60e51b81526004016106d690612d3f565b60026020527fe90b7bceb6e7df5418fb78d8ee546e97c83a08bbccc01a0644d599ccd2a7c2e080546001600160a01b038481166000818152604081208054939094166001600160a01b03199384161790935560018352835490911617909155600380549161078483612d74565b90915550506040516001600160a01b038316907f9465fa0c962cc76958e6373a993326400c1c94f8be2fe3a952adfa7f60b2ea2690600090a280600454146107cf576107cf81610fbc565b5050565b6107de816041611fb2565b825110156108165760405162461bcd60e51b8152602060048201526005602482015264047533032360dc1b60448201526064016106d6565b6000808060008060005b86811015610c6f576041818102890160208101516040820151919092015160ff16955090935091506000849003610a2e57885160208a01208a1461088e5760405162461bcd60e51b8152602060048201526005602482015264475330323760d81b60448201526064016106d6565b919350839161089e876041611fb2565b8210156108d55760405162461bcd60e51b8152602060048201526005602482015264475330323160d81b60448201526064016106d6565b87516108e2836020611fee565b11156109185760405162461bcd60e51b815260206004820152600560248201526423a998191960d91b60448201526064016106d6565b60208289018101518951909161093b908390610935908790611fee565b90611fee565b11156109715760405162461bcd60e51b8152602060048201526005602482015264475330323360d81b60448201526064016106d6565b6040516320c13b0b60e01b8082528a8501602001916001600160a01b038916906320c13b0b906109a7908f908690600401612d8d565b602060405180830381865afa1580156109c4573d6000803e3d6000fd5b505050506040513d601f19601f820116820180604052508101906109e89190612db2565b6001600160e01b03191614610a275760405162461bcd60e51b815260206004820152600560248201526411d4cc0c8d60da1b60448201526064016106d6565b5050610bd5565b8360ff16600103610ab0579193508391336001600160a01b0384161480610a7757506001600160a01b03851660009081526008602090815260408083208d845290915290205415155b610aab5760405162461bcd60e51b8152602060048201526005602482015264475330323560d81b60448201526064016106d6565b610bd5565b601e8460ff161115610b75576040517f19457468657265756d205369676e6564204d6573736167653a0a3332000000006020820152603c81018b9052600190605c0160405160208183030381529060405280519060200120600486610b159190612ddc565b6040805160008152602081018083529390935260ff90911690820152606081018590526080810184905260a0016020604051602081039080840390855afa158015610b64573d6000803e3d6000fd5b505050602060405103519450610bd5565b6040805160008152602081018083528c905260ff861691810191909152606081018490526080810183905260019060a0016020604051602081039080840390855afa158015610bc8573d6000803e3d6000fd5b5050506020604051035194505b856001600160a01b0316856001600160a01b0316118015610c0f57506001600160a01b038581166000908152600260205260409020541615155b8015610c2557506001600160a01b038516600114155b610c595760405162461bcd60e51b815260206004820152600560248201526423a998191b60d91b60448201526064016106d6565b8495508080610c6790612d74565b915050610820565b50505050505050505050565b600060016001600160a01b03831614801590610cb057506001600160a01b038281166000908152600160205260409020541615155b92915050565b60006001600160a01b038216600114801590610cb05750506001600160a01b0390811660009081526002602052604090205416151590565b600033600114801590610d185750336000908152600160205260409020546001600160a01b031615155b610d4c5760405162461bcd60e51b815260206004820152600560248201526411d4cc4c0d60da1b60448201526064016106d6565b610d5b8585858560001961200a565b90508015610d935760405133907f6895c13664aa4f67288b25d7a21d7aaa34916e355fb9b6fae0a139a9085becb890600090a2610dbf565b60405133907facd2c8702804128fdb0db2bb49f6d127dd0181c13fd45dbfe16de0930e2bd37590600090a25b949350505050565b60006060610dd786868686610cee565b915060405160203d0181016040523d81523d6000602083013e8091505094509492505050565b60606000610e0c836020612df5565b67ffffffffffffffff811115610e2457610e246125e8565b6040519080825280601f01601f191660200182016040528015610e4e576020820181803683370190505b50905060005b83811015610e7b578481015460208083028401015280610e7381612d74565b915050610e54565b509392505050565b610e8b611f79565b6001600160a01b03811615801590610ead57506001600160a01b038116600114155b610ee15760405162461bcd60e51b8152602060048201526005602482015264475331303160d81b60448201526064016106d6565b6001600160a01b038181166000908152600160205260409020541615610f315760405162461bcd60e51b815260206004820152600560248201526423a998981960d91b60448201526064016106d6565b600160208190527fcc69885fda6bcc1a4ace058b4a62bf5e179ea78fd58a1ccd71c22cc9b688792f80546001600160a01b03848116600081815260408082208054949095166001600160a01b031994851617909455948552835490911681179092555190917fecdf3a3effea5783a3c4c2140e677577666428d44ed9d474a0b3a4c9943f844091a250565b610fc4611f79565b600354811115610fe65760405162461bcd60e51b81526004016106d690612e14565b600181101561101f5760405162461bcd60e51b815260206004820152600560248201526423a999181960d91b60448201526064016106d6565b60048190556040518181527f610f7ff2b304ae8903c3de74c60c6ab1f7d6226b3f52c5161905bb5ad4039c939060200160405180910390a150565b60008060006110748e8e8e8e8e8e8e8e8e8e600554611c96565b60058054919250600061108683612d74565b909155505080516020820120915061109f8282866113a5565b5060006110ca7f4a204f620c8c5ccdca3fd54d003badd85ba500436a431f0cbda4f558c93c34c85490565b90506001600160a01b0381161561115057806001600160a01b03166375f0bb528f8f8f8f8f8f8f8f8f8f8f336040518d63ffffffff1660e01b815260040161111d9c9b9a99989796959493929190612e6b565b600060405180830381600087803b15801561113757600080fd5b505af115801561114b573d6000803e3d6000fd5b505050505b61117c61115f8a6109c4612f30565b603f61116c8c6040612df5565b6111769190612f43565b90612051565b611188906101f4612f30565b5a10156111bf5760405162461bcd60e51b8152602060048201526005602482015264047533031360dc1b60448201526064016106d6565b60005a90506112308f8f8f8f8080601f016020809104026020016040519081016040528093929190818152602001838380828437600081840152601f19601f820116905080830192505050505050508e8c60001461121d578e61200a565b6109c45a61122b9190612f65565b61200a565b935061123d5a8290612068565b9050838061124a57508915155b8061125457508715155b6112885760405162461bcd60e51b8152602060048201526005602482015264475330313360d81b60448201526064016106d6565b600088156112a05761129d828b8b8b8b612083565b90505b84156112e557837f442e715f626346e8c54381002da614f62bee8d27386535b2521ec8540898556e826040516112d891815260200190565b60405180910390a2611320565b837f23428b18acfb3ea64b08dc0c1d296ea9c09702c09083ca5272e64d115b687d238260405161131791815260200190565b60405180910390a25b50506001600160a01b0381161561139457604051631264e26d60e31b81526004810183905283151560248201526001600160a01b03821690639327136890604401600060405180830381600087803b15801561137b57600080fd5b505af115801561138f573d6000803e3d6000fd5b505050505b50509b9a5050505050505050505050565b600454806113dd5760405162461bcd60e51b8152602060048201526005602482015264475330303160d81b60448201526064016106d6565b6113e9848484846107d3565b50505050565b6060600060035467ffffffffffffffff81111561140e5761140e6125e8565b604051908082528060200260200182016040528015611437578160200160208202803683370190505b506001600090815260026020527fe90b7bceb6e7df5418fb78d8ee546e97c83a08bbccc01a0644d599ccd2a7c2e054919250906001600160a01b03165b6001600160a01b0381166001146114d8578083838151811061149857611498612f78565b6001600160a01b039283166020918202929092018101919091529181166000908152600290925260409091205416816114d081612d74565b925050611474565b509092915050565b600080825160208401855af480600052503d6020523d600060403e60403d016000fd5b6115418a8a808060200260200160405190810160405280939291908181526020018383602002808284376000920191909152508c9250612189915050565b6001600160a01b03841615611559576115598461236f565b6115998787878080601f0160208091040260200160405190810160405280939291908181526020018383808284376000920191909152506123d392505050565b81156115b0576115ae82600060018685612083565b505b336001600160a01b03167f141df868a6331af528e38c83b7aa03edc19be66e37ae67f9285bf4f8e3c6a1a88b8b8b8b896040516115f1959493929190612f8e565b60405180910390a250505050505050505050565b606060006001600160a01b03841660011480611625575061162584610c7b565b6116595760405162461bcd60e51b8152602060048201526005602482015264475331303560d81b60448201526064016106d6565b600083116116915760405162461bcd60e51b815260206004820152600560248201526423a998981b60d91b60448201526064016106d6565b8267ffffffffffffffff8111156116aa576116aa6125e8565b6040519080825280602002602001820160405280156116d3578160200160208202803683370190505b506001600160a01b03808616600090815260016020526040812054929450911691505b6001600160a01b0382161580159061171857506001600160a01b038216600114155b801561172357508381105b1561177e578183828151811061173b5761173b612f78565b6001600160a01b0392831660209182029290920181019190915292811660009081526001909352604090922054909116908061177681612d74565b9150506116f6565b6001600160a01b0382166001146117b6578261179b600183612f65565b815181106117ab576117ab612f78565b602002602001015191505b808352509250929050565b336000908152600260205260409020546001600160a01b031661180e5760405162461bcd60e51b8152602060048201526005602482015264047533033360dc1b60448201526064016106d6565b336000818152600860209081526040808320858452909152808220600190555183917ff2a0eb156472d1440255b0d7c1e19cc07115d1051fe605b0dce69acfec884d9c91a350565b600061186b8c8c8c8c8c8c8c8c8c8c8c611c96565b8051906020012090509b9a5050505050505050505050565b61188b611f79565b6001600160a01b038116158015906118ad57506001600160a01b038116600114155b6118e15760405162461bcd60e51b8152602060048201526005602482015264475331303160d81b60448201526064016106d6565b6001600160a01b038281166000908152600160205260409020548116908216146119355760405162461bcd60e51b8152602060048201526005602482015264475331303360d81b60448201526064016106d6565b6001600160a01b03818116600081815260016020526040808220805487861684528284208054919096166001600160a01b0319918216179095558383528054909416909355915190917faab4fa2b463f581b2b32cb3b7e3b704b9ce37cc209b5fb4d77e593ace405427691a25050565b6119ad611f79565b6001600160a01b03811615611a5f576040516301ffc9a760e01b815263736bd41d60e11b60048201526001600160a01b038216906301ffc9a790602401602060405180830381865afa158015611a07573d6000803e3d6000fd5b505050506040513d601f19601f82011682018060405250810190611a2b9190612ffa565b611a5f5760405162461bcd60e51b8152602060048201526005602482015264047533330360dc1b60448201526064016106d6565b7f4a204f620c8c5ccdca3fd54d003badd85ba500436a431f0cbda4f558c93c34c88181556040516001600160a01b038316907f1151116914515bc0891ff9047a6cb32cf902546f83066499bcf8ba33d2353fa290600090a25050565b611ac3611f79565b6001600160a01b03811615801590611ae557506001600160a01b038116600114155b8015611afa57506001600160a01b0381163014155b611b165760405162461bcd60e51b81526004016106d690612d20565b6001600160a01b038181166000908152600260205260409020541615611b4e5760405162461bcd60e51b81526004016106d690612d3f565b6001600160a01b03821615801590611b7057506001600160a01b038216600114155b611b8c5760405162461bcd60e51b81526004016106d690612d20565b6001600160a01b03838116600090815260026020526040902054811690831614611be05760405162461bcd60e51b8152602060048201526005602482015264475332303560d81b60448201526064016106d6565b6001600160a01b03828116600081815260026020526040808220805486861680855283852080549288166001600160a01b03199384161790559589168452828420805482169096179095558383528054909416909355915190917ff8d49fc529812e9a7c5c50e69c20f0dccc0db8fa95c98bc58cc9a4f1c1299eaf91a26040516001600160a01b038216907f9465fa0c962cc76958e6373a993326400c1c94f8be2fe3a952adfa7f60b2ea2690600090a2505050565b606060007fbb8310d486368db6bd6f849402fdd73ad53d316b5a4b2644ad6efe0f941286d860001b8d8d8d8d604051611cd092919061301c565b604051908190038120611cf6949392918e908e908e908e908e908e908e9060200161302c565b60408051601f1981840301815291905280516020909101209050601960f81b600160f81b611d22611db7565b6040516001600160f81b031993841660208201529290911660218301526022820152604281018290526062016040516020818303038152906040529150509b9a5050505050505050505050565b611d77611f79565b611d808161236f565b6040516001600160a01b038216907f5ac6c46c93c8d0e53714ba3b53db3e7c046da994313d7ed0d192028bc7c228b090600090a250565b60007f47e79534a245952e8b16893a336b85a3d9ea9fa8c573f3d803afb92a794692184660408051602081019390935282015230606082015260800160405160208183030381529060405280519060200120905090565b611e16611f79565b806001600354611e269190612f65565b1015611e445760405162461bcd60e51b81526004016106d690612e14565b6001600160a01b03821615801590611e6657506001600160a01b038216600114155b611e825760405162461bcd60e51b81526004016106d690612d20565b6001600160a01b03838116600090815260026020526040902054811690831614611ed65760405162461bcd60e51b8152602060048201526005602482015264475332303560d81b60448201526064016106d6565b6001600160a01b03828116600081815260026020526040808220805488861684529183208054929095166001600160a01b03199283161790945591815282549091169091556003805491611f298361309b565b90915550506040516001600160a01b038316907ff8d49fc529812e9a7c5c50e69c20f0dccc0db8fa95c98bc58cc9a4f1c1299eaf90600090a28060045414611f7457611f7481610fbc565b505050565b333014611fb05760405162461bcd60e51b8152602060048201526005602482015264475330333160d81b60448201526064016106d6565b565b600082600003611fc457506000610cb0565b6000611fd08385612df5565b905082611fdd8583612f43565b14611fe757600080fd5b9392505050565b600080611ffb8385612f30565b905083811015611fe757600080fd5b6000600183600181111561202057612020612e33565b03612038576000808551602087018986f49050612048565b600080855160208701888a87f190505b95945050505050565b6000818310156120615781611fe7565b5090919050565b60008282111561207757600080fd5b6000610dbf8385612f65565b6000806001600160a01b0383161561209b578261209d565b325b90506001600160a01b038416612130576120cf3a86106120bd573a6120bf565b855b6120c98989611fee565b90611fb2565b6040519092506001600160a01b0382169083156108fc029084906000818181858888f1935050505061212b5760405162461bcd60e51b8152602060048201526005602482015264475330313160d81b60448201526064016106d6565b61217f565b61213e856120c98989611fee565b915061214b848284612505565b61217f5760405162461bcd60e51b815260206004820152600560248201526423a998189960d91b60448201526064016106d6565b5095945050505050565b600454156121c15760405162461bcd60e51b8152602060048201526005602482015264047533230360dc1b60448201526064016106d6565b81518111156121e25760405162461bcd60e51b81526004016106d690612e14565b600181101561221b5760405162461bcd60e51b815260206004820152600560248201526423a999181960d91b60448201526064016106d6565b600160005b835181101561233c57600084828151811061223d5761223d612f78565b6020026020010151905060006001600160a01b0316816001600160a01b03161415801561227457506001600160a01b038116600114155b801561228957506001600160a01b0381163014155b80156122a75750806001600160a01b0316836001600160a01b031614155b6122c35760405162461bcd60e51b81526004016106d690612d20565b6001600160a01b0381811660009081526002602052604090205416156122fb5760405162461bcd60e51b81526004016106d690612d3f565b6001600160a01b03928316600090815260026020526040902080546001600160a01b031916938216939093179092558061233481612d74565b915050612220565b506001600160a01b0316600090815260026020526040902080546001600160a01b03191660011790559051600355600455565b306001600160a01b038216036123af5760405162461bcd60e51b8152602060048201526005602482015264047533430360dc1b60448201526064016106d6565b7f6c9a6c4a39284e37ed1cf53d337577d14212a4870fb976a4366c693b939918d555565b600160008190526020527fcc69885fda6bcc1a4ace058b4a62bf5e179ea78fd58a1ccd71c22cc9b688792f546001600160a01b03161561243d5760405162461bcd60e51b8152602060048201526005602482015264047533130360dc1b60448201526064016106d6565b6001600081905260208190527fcc69885fda6bcc1a4ace058b4a62bf5e179ea78fd58a1ccd71c22cc9b688792f80546001600160a01b03191690911790556001600160a01b038216156107cf57813b6124c05760405162461bcd60e51b815260206004820152600560248201526423a998181960d91b60448201526064016106d6565b6124d182600083600160001961200a565b6107cf5760405162461bcd60e51b8152602060048201526005602482015264047533030360dc1b60448201526064016106d6565b604080516001600160a01b03841660248201526044808201849052825180830390910181526064909101909152602080820180516001600160e01b031663a9059cbb60e01b1781528251600093929184919082896127105a03f13d8015612577576020811461257f576000935061258a565b81935061258a565b600051158215171593505b5050509392505050565b6001600160a01b03811681146125a957600080fd5b50565b80356125b781612594565b919050565b600080604083850312156125cf57600080fd5b82356125da81612594565b946020939093013593505050565b634e487b7160e01b600052604160045260246000fd5b600082601f83011261260f57600080fd5b813567ffffffffffffffff8082111561262a5761262a6125e8565b604051601f8301601f19908116603f01168101908282118183101715612652576126526125e8565b8160405283815286602085880101111561266b57600080fd5b836020870160208301376000602085830101528094505050505092915050565b600080600080608085870312156126a157600080fd5b84359350602085013567ffffffffffffffff808211156126c057600080fd5b6126cc888389016125fe565b945060408701359150808211156126e257600080fd5b506126ef878288016125fe565b949793965093946060013593505050565b60006020828403121561271257600080fd5b8135611fe781612594565b8035600281106125b757600080fd5b6000806000806080858703121561274257600080fd5b843561274d81612594565b935060208501359250604085013567ffffffffffffffff81111561277057600080fd5b61277c878288016125fe565b92505061278b6060860161271d565b905092959194509250565b6000815180845260005b818110156127bc576020818501810151868301820152016127a0565b506000602082860101526020601f19601f83011685010191505092915050565b8215158152604060208201526000610dbf6040830184612796565b6000806040838503121561280a57600080fd5b50508035926020909101359150565b602081526000611fe76020830184612796565b60006020828403121561283e57600080fd5b5035919050565b60008083601f84011261285757600080fd5b50813567ffffffffffffffff81111561286f57600080fd5b60208301915083602082850101111561288757600080fd5b9250929050565b60008060008060008060008060008060006101408c8e0312156128b057600080fd5b6128b98c6125ac565b9a5060208c0135995067ffffffffffffffff8060408e013511156128dc57600080fd5b6128ec8e60408f01358f01612845565b909a5098506128fd60608e0161271d565b975060808d0135965060a08d0135955060c08d0135945061292060e08e016125ac565b935061292f6101008e016125ac565b9250806101208e0135111561294357600080fd5b506129558d6101208e01358e016125fe565b90509295989b509295989b9093969950565b60008060006060848603121561297c57600080fd5b83359250602084013567ffffffffffffffff8082111561299b57600080fd5b6129a7878388016125fe565b935060408601359150808211156129bd57600080fd5b506129ca868287016125fe565b9150509250925092565b600081518084526020808501945080840160005b83811015612a0d5781516001600160a01b0316875295820195908201906001016129e8565b509495945050505050565b602081526000611fe760208301846129d4565b60008060408385031215612a3e57600080fd5b8235612a4981612594565b9150602083013567ffffffffffffffff811115612a6557600080fd5b612a71858286016125fe565b9150509250929050565b6000806000806000806000806000806101008b8d031215612a9b57600080fd5b8a3567ffffffffffffffff80821115612ab357600080fd5b818d0191508d601f830112612ac757600080fd5b813581811115612ad657600080fd5b8e60208260051b8501011115612aeb57600080fd5b60208381019d50909b508d01359950612b0660408e016125ac565b985060608d0135915080821115612b1c57600080fd5b50612b298d828e01612845565b9097509550612b3c905060808c016125ac565b9350612b4a60a08c016125ac565b925060c08b01359150612b5f60e08c016125ac565b90509295989b9194979a5092959850565b604081526000612b8360408301856129d4565b905060018060a01b03831660208301529392505050565b60008060008060008060008060008060006101408c8e031215612bbc57600080fd5b8b35612bc781612594565b9a5060208c0135995060408c013567ffffffffffffffff811115612bea57600080fd5b612bf68e828f01612845565b909a509850612c09905060608d0161271d565b965060808c0135955060a08c0135945060c08c0135935060e08c0135612c2e81612594565b92506101008c0135612c3f81612594565b809250506101208c013590509295989b509295989b9093969950565b60008060408385031215612c6e57600080fd5b8235612c7981612594565b91506020830135612c8981612594565b809150509250929050565b600080600060608486031215612ca957600080fd5b8335612cb481612594565b92506020840135612cc481612594565b91506040840135612cd481612594565b809150509250925092565b600080600060608486031215612cf457600080fd5b8335612cff81612594565b92506020840135612d0f81612594565b929592945050506040919091013590565b602080825260059082015264475332303360d81b604082015260600190565b60208082526005908201526411d4cc8c0d60da1b604082015260600190565b634e487b7160e01b600052601160045260246000fd5b600060018201612d8657612d86612d5e565b5060010190565b604081526000612da06040830185612796565b82810360208401526120488185612796565b600060208284031215612dc457600080fd5b81516001600160e01b031981168114611fe757600080fd5b60ff8281168282160390811115610cb057610cb0612d5e565b6000816000190483118215151615612e0f57612e0f612d5e565b500290565b602080825260059082015264475332303160d81b604082015260600190565b634e487b7160e01b600052602160045260246000fd5b60028110612e6757634e487b7160e01b600052602160045260246000fd5b9052565b6001600160a01b038d168152602081018c90526101606040820181905281018a905260006101808b8d828501376000838d01820152601f8c01601f19168301612eb7606085018d612e49565b8a60808501528960a08501528860c0850152612ede60e08501896001600160a01b03169052565b6001600160a01b0387166101008501528184820301610120850152612f0582820187612796565b92505050612f1f6101408301846001600160a01b03169052565b9d9c50505050505050505050505050565b80820180821115610cb057610cb0612d5e565b600082612f6057634e487b7160e01b600052601260045260246000fd5b500490565b81810381811115610cb057610cb0612d5e565b634e487b7160e01b600052603260045260246000fd5b6080808252810185905260008660a08301825b88811015612fd1578235612fb481612594565b6001600160a01b0316825260209283019290910190600101612fa1565b50602084019690965250506001600160a01b039283166040820152911660609091015292915050565b60006020828403121561300c57600080fd5b81518015158114611fe757600080fd5b8183823760009101908152919050565b8b81526001600160a01b038b81166020830152604082018b9052606082018a9052610160820190613060608084018b612e49565b60a083019890985260c082019690965260e0810194909452918516610100840152909316610120820152610140019190915295945050505050565b6000816130aa576130aa612d5e565b50600019019056fea2646970667358221220c7fa78f4aab9635f62e1c85e8dc32c01f09dda803afbb0964510b5b76f4ac8a164736f6c63430008100033",
    "linkReferences": {}
  },
  "methodIdentifiers": {
    "VERSION()": "ffa1ad74",
    "addOwnerWithThreshold(address,uint256)": "0d582f13",
    "approveHash(bytes32)": "d4d9bdcd",
    "approvedHashes(address,bytes32)": "7d832974",
    "changeThreshold(uint256)": "694e80c3",
    "checkNSignatures(bytes32,bytes,bytes,uint256)": "12fb68e0",
    "checkSignatures(bytes32,bytes,bytes)": "934f3a11",
    "disableModule(address,address)": "e009cfde",
    "domainSeparator()": "f698da25",
    "enableModule(address)": "610b5925",
    "encodeTransactionData(address,uint256,bytes,uint8,uint256,uint256,uint256,address,address,uint256)": "e86637db",
    "execTransaction(address,uint256,bytes,uint8,uint256,uint256,uint256,address,address,bytes)": "6a761202",
    "execTransactionFromModule(address,uint256,bytes,uint8)": "468721a7",
    "execTransactionFromModuleReturnData(address,uint256,bytes,uint8)": "5229073f",
    "getChainId()": "3408e470",
    "getModulesPaginated(address,uint256)": "cc2f8452",
    "getOwners()": "a0e67e2b",
    "getStorageAt(uint256,uint256)": "5624b25b",
    "getThreshold()": "e75235b8",
    "getTransactionHash(address,uint256,bytes,uint8,uint256,uint256,uint256,address,address,uint256)": "d8d11f78",
    "isModuleEnabled(address)": "2d9ad53d",
    "isOwner(address)": "2f54bf6e",
    "nonce()": "affed0e0",
    "removeOwner(address,address,uint256)": "f8dc5dd9",
    "setFallbackHandler(address)": "f08a0323",
    "setGuard(address)": "e19a9dd9",
    "setup(address[],uint256,address,bytes,address,address,uint256,address)": "b63e800d",
    "signedMessages(bytes32)": "5ae6bd37",
    "simulateAndRevert(address,bytes)": "b4faba09",
    "swapOwner(address,address,address)": "e318b52b"
  },
  "id": 0
}