{
  "abi": [
    {
      "inputs": [
        {
          "internalType": "address",
          "name": "_defaultCurrency",
          "type": "address"
        },
        {
          "internalType": "address",
          "name": "_optimisticOracleV3",
          "type": "address"
        }
      ],
      "stateMutability": "nonpayable",
      "type": "constructor"
    },
    {
      "anonymous": false,
      "inputs": [
        {
          "indexed": true,
          "internalType": "bytes32",
          "name": "dataId",
          "type": "bytes32"
        },
        {
          "indexed": false,
          "internalType": "bytes32",
          "name": "data",
          "type": "bytes32"
        },
        {
          "indexed": true,
          "internalType": "address",
          "name": "asserter",
          "type": "address"
        },
        {
          "indexed": true,
          "internalType": "bytes32",
          "name": "assertionId",
          "type": "bytes32"
        }
      ],
      "name": "DataAsserted",
      "type": "event"
    },
    {
      "anonymous": false,
      "inputs": [
        {
          "indexed": true,
          "internalType": "bytes32",
          "name": "dataId",
          "type": "bytes32"
        },
        {
          "indexed": false,
          "internalType": "bytes32",
          "name": "data",
          "type": "bytes32"
        },
        {
          "indexed": true,
          "internalType": "address",
          "name": "asserter",
          "type": "address"
        },
        {
          "indexed": true,
          "internalType": "bytes32",
          "name": "assertionId",
          "type": "bytes32"
        }
      ],
      "name": "DataAssertionResolved",
      "type": "event"
    },
    {
      "inputs": [
        {
          "internalType": "bytes32",
          "name": "dataId",
          "type": "bytes32"
        },
        {
          "internalType": "bytes32",
          "name": "data",
          "type": "bytes32"
        },
        {
          "internalType": "address",
          "name": "asserter",
          "type": "address"
        }
      ],
      "name": "assertDataFor",
      "outputs": [
        {
          "internalType": "bytes32",
          "name": "assertionId",
          "type": "bytes32"
        }
      ],
      "stateMutability": "nonpayable",
      "type": "function"
    },
    {
      "inputs": [
        {
          "internalType": "bytes32",
          "name": "assertionId",
          "type": "bytes32"
        }
      ],
      "name": "assertionDisputedCallback",
      "outputs": [],
      "stateMutability": "nonpayable",
      "type": "function"
    },
    {
      "inputs": [],
      "name": "assertionLiveness",
      "outputs": [
        {
          "internalType": "uint64",
          "name": "",
          "type": "uint64"
        }
      ],
      "stateMutability": "view",
      "type": "function"
    },
    {
      "inputs": [
        {
          "internalType": "bytes32",
          "name": "assertionId",
          "type": "bytes32"
        },
        {
          "internalType": "bool",
          "name": "assertedTruthfully",
          "type": "bool"
        }
      ],
      "name": "assertionResolvedCallback",
      "outputs": [],
      "stateMutability": "nonpayable",
      "type": "function"
    },
    {
      "inputs": [
        {
          "internalType": "bytes32",
          "name": "",
          "type": "bytes32"
        }
      ],
      "name": "assertionsData",
      "outputs": [
        {
          "internalType": "bytes32",
          "name": "dataId",
          "type": "bytes32"
        },
        {
          "internalType": "bytes32",
          "name": "data",
          "type": "bytes32"
        },
        {
          "internalType": "address",
          "name": "asserter",
          "type": "address"
        },
        {
          "internalType": "bool",
          "name": "resolved",
          "type": "bool"
        }
      ],
      "stateMutability": "view",
      "type": "function"
    },
    {
      "inputs": [],
      "name": "defaultCurrency",
      "outputs": [
        {
          "internalType": "contract IERC20",
          "name": "",
          "type": "address"
        }
      ],
      "stateMutability": "view",
      "type": "function"
    },
    {
      "inputs": [],
      "name": "defaultIdentifier",
      "outputs": [
        {
          "internalType": "bytes32",
          "name": "",
          "type": "bytes32"
        }
      ],
      "stateMutability": "view",
      "type": "function"
    },
    {
      "inputs": [
        {
          "internalType": "bytes32",
          "name": "assertionId",
          "type": "bytes32"
        }
      ],
      "name": "getData",
      "outputs": [
        {
          "internalType": "bool",
          "name": "",
          "type": "bool"
        },
        {
          "internalType": "bytes32",
          "name": "",
          "type": "bytes32"
        }
      ],
      "stateMutability": "view",
      "type": "function"
    },
    {
      "inputs": [],
      "name": "oo",
      "outputs": [
        {
          "internalType": "contract OptimisticOracleV3Interface",
          "name": "",
          "type": "address"
        }
      ],
      "stateMutability": "view",
      "type": "function"
    }
  ],
  "bytecode": {
    "object": "0x60e06040523480156200001157600080fd5b50604051620013d1380380620013d18339810160408190526200003491620000d4565b6001600160a01b03808316608052811660a08190526040805163d509b01760e01b8152905163d509b017916004808201926020929091908290030181865afa15801562000085573d6000803e3d6000fd5b505050506040513d601f19601f82011682018060405250810190620000ab91906200010c565b60c05250620001269050565b80516001600160a01b0381168114620000cf57600080fd5b919050565b60008060408385031215620000e857600080fd5b620000f383620000b7565b91506200010360208401620000b7565b90509250929050565b6000602082840312156200011f57600080fd5b5051919050565b60805160a05160c05161123d62000194600039600081816101fd015261049401526000818161010b015281816102d7015281816103a8015281816103cf01526105c6015260008181609d015281816102a901528181610351015281816103860152610470015261123d6000f3fe608060405234801561001057600080fd5b50600436106100935760003560e01c8063b33893da11610066578063b33893da1461014e578063b75d4e24146101c3578063d448a4ec146101e5578063d509b017146101f8578063f1b156b21461021f57600080fd5b806320402e1d1461009857806354f6127f146100dc5780638921a6141461010657806393ee663b1461012d575b600080fd5b6100bf7f000000000000000000000000000000000000000000000000000000000000000081565b6040516001600160a01b0390911681526020015b60405180910390f35b6100ef6100ea366004610e18565b610232565b6040805192151583526020830191909152016100d3565b6100bf7f000000000000000000000000000000000000000000000000000000000000000081565b61014061013b366004610e31565b610279565b6040519081526020016100d3565b61019261015c366004610e18565b6000602081905290815260409020805460018201546002909201549091906001600160a01b03811690600160a01b900460ff1684565b6040516100d3949392919093845260208401929092526001600160a01b031660408301521515606082015260800190565b6101cc611c2081565b60405167ffffffffffffffff90911681526020016100d3565b6101f66101f3366004610e18565b50565b005b6101407f000000000000000000000000000000000000000000000000000000000000000081565b6101f661022d366004610e84565b6105bb565b6000818152602081905260408120600201548190600160a01b900460ff1661025f57506000928392509050565b505060009081526020819052604090206001908101549091565b60006001600160a01b038216156102905781610292565b335b604051634360af3d60e01b81526001600160a01b037f0000000000000000000000000000000000000000000000000000000000000000811660048301529193506000917f00000000000000000000000000000000000000000000000000000000000000001690634360af3d90602401602060405180830381865afa15801561031e573d6000803e3d6000fd5b505050506040513d601f19601f820116820180604052508101906103429190610eb4565b90506103796001600160a01b037f0000000000000000000000000000000000000000000000000000000000000000163330846106c6565b6103cd6001600160a01b037f0000000000000000000000000000000000000000000000000000000000000000167f000000000000000000000000000000000000000000000000000000000000000083610737565b7f00000000000000000000000000000000000000000000000000000000000000006001600160a01b0316636457c97961040586610856565b61040e88610856565b61041787610897565b610420426108ee565b61042930610897565b60405160200161043d959493929190610f0d565b60408051601f19818403018152908290526001600160e01b031960e084901b1682526104be9187903090600090611c20907f0000000000000000000000000000000000000000000000000000000000000000908a907f0000000000000000000000000000000000000000000000000000000000000000908590600401611062565b6020604051808303816000875af11580156104dd573d6000803e3d6000fd5b505050506040513d601f19601f820116820180604052508101906105019190610eb4565b6040805160808101825287815260208082018881526001600160a01b0380891684860181815260006060870181815289825295819052879020955186559251600186015591516002909401805493511515600160a01b026001600160a81b03199094169490911693909317919091179091559051919350839187907f29ae27364abd65b112ad0ac18e7e4f97360c20afa9636864dc91195d4d9204ec906105ab9089815260200190565b60405180910390a4509392505050565b336001600160a01b037f000000000000000000000000000000000000000000000000000000000000000016146105f057600080fd5b8015610699576000828152602081815260409182902060028101805460ff60a01b198116600160a01b9081179283905585516080810187528454808252600195909501549581018690526001600160a01b03909216828701819052920460ff1615156060820152935186939192917fe49ab75dd8ad20084c43aacc9218434d61af074f44263f887212c41ad2d41c9d9161068c91815260200190565b60405180910390a4505050565b506000908152602081905260408120818155600181019190915560020180546001600160a81b0319169055565b6040516001600160a01b03808516602483015283166044820152606481018290526107319085906323b872dd60e01b906084015b60408051601f198184030181529190526020810180516001600160e01b03166001600160e01b031990931692909217909152610a1a565b50505050565b8015806107b15750604051636eb1769f60e11b81523060048201526001600160a01b03838116602483015284169063dd62ed3e90604401602060405180830381865afa15801561078b573d6000803e3d6000fd5b505050506040513d601f19601f820116820180604052508101906107af9190610eb4565b155b6108215760405162461bcd60e51b815260206004820152603660248201527f5361666545524332303a20617070726f76652066726f6d206e6f6e2d7a65726f60448201527520746f206e6f6e2d7a65726f20616c6c6f77616e636560501b60648201526084015b60405180910390fd5b6040516001600160a01b03831660248201526044810182905261085190849063095ea7b360e01b906064016106fa565b505050565b6060610865608083901c610aef565b61086e83610aef565b6040805160208101939093528201526060015b6040516020818303038152906040529050919050565b60606108af6001600160801b03602084901c16610aef565b6108ca8360601b6bffffffffffffffffffffffff1916610aef565b6040516020016108819291909182526001600160c01b031916602082015260280190565b6060816000036109155750506040805180820190915260018152600360fc1b602082015290565b8160005b811561093f5780610929816110e6565b91506109389050600a83611115565b9150610919565b60008167ffffffffffffffff81111561095a5761095a611137565b6040519080825280601f01601f191660200182016040528015610984576020820181803683370190505b509050815b8515610a115761099a60018261114d565b905060006109a9600a88611115565b6109b490600a611166565b6109be908861114d565b6109c9906030611185565b905060008160f81b9050808484815181106109e6576109e661119e565b60200101906001600160f81b031916908160001a905350610a08600a89611115565b97505050610989565b50949350505050565b6000610a6f826040518060400160405280602081526020017f5361666545524332303a206c6f772d6c6576656c2063616c6c206661696c6564815250856001600160a01b0316610c889092919063ffffffff16565b9050805160001480610a90575080806020019051810190610a9091906111b4565b6108515760405162461bcd60e51b815260206004820152602a60248201527f5361666545524332303a204552433230206f7065726174696f6e20646964206e6044820152691bdd081cdd58d8d9595960b21b6064820152608401610818565b6000808260001c9050806001600160801b03169050806801000000000000000002811777ffffffffffffffff0000000000000000ffffffffffffffff169050806401000000000281177bffffffff00000000ffffffff00000000ffffffff00000000ffffffff16905080620100000281177dffff0000ffff0000ffff0000ffff0000ffff0000ffff0000ffff0000ffff169050806101000281177eff00ff00ff00ff00ff00ff00ff00ff00ff00ff00ff00ff00ff00ff00ff00ff1690508060100281177f0f0f0f0f0f0f0f0f0f0f0f0f0f0f0f0f0f0f0f0f0f0f0f0f0f0f0f0f0f0f0f0f16905060006008827f08080808080808080808080808080808080808080808080808080808080808081681610c0a57610c0a6110ff565b0460047f040404040404040404040404040404040404040404040404040404040404040484160460027f020202020202020202020202020202020202020202020202020202020202020285160417166027029091017f3030303030303030303030303030303030303030303030303030303030303030019392505050565b6060610c978484600085610c9f565b949350505050565b606082471015610d005760405162461bcd60e51b815260206004820152602660248201527f416464726573733a20696e73756666696369656e742062616c616e636520666f6044820152651c8818d85b1b60d21b6064820152608401610818565b600080866001600160a01b03168587604051610d1c91906111d8565b60006040518083038185875af1925050503d8060008114610d59576040519150601f19603f3d011682016040523d82523d6000602084013e610d5e565b606091505b5091509150610d6f87838387610d7a565b979650505050505050565b60608315610de9578251600003610de2576001600160a01b0385163b610de25760405162461bcd60e51b815260206004820152601d60248201527f416464726573733a2063616c6c20746f206e6f6e2d636f6e74726163740000006044820152606401610818565b5081610c97565b610c978383815115610dfe5781518083602001fd5b8060405162461bcd60e51b815260040161081891906111f4565b600060208284031215610e2a57600080fd5b5035919050565b600080600060608486031215610e4657600080fd5b833592506020840135915060408401356001600160a01b0381168114610e6b57600080fd5b809150509250925092565b80151581146101f357600080fd5b60008060408385031215610e9757600080fd5b823591506020830135610ea981610e76565b809150509250929050565b600060208284031215610ec657600080fd5b5051919050565b60005b83811015610ee8578181015183820152602001610ed0565b50506000910152565b60008151610f03818560208601610ecd565b9290920192915050565b70088c2e8c240c2e6e6cae4e8cac8744060f607b1b8152600086516020610f3a8260118601838c01610ecd565b6e040ccdee440c8c2e8c292c8744060f608b1b6011928501928301528751610f6781838501848c01610ecd565b70040c2dcc840c2e6e6cae4e8cae4744060f607b1b9201818101929092528651610f9781603185018a8501610ecd565b6011818401019250506e01030ba103a34b6b2b9ba30b6b81d1608d1b818301528551610fc981602f8501848a01610ecd565b600f818401019250507f20696e207468652044617461417373657274657220636f6e747261637420617481830152506204060f60eb1b604082015261102a6110146043830186610ef1565b691034b9903b30b634b21760b11b8152600a0190565b98975050505050505050565b6000815180845261104e816020860160208601610ecd565b601f01601f19169290920160200192915050565b60006101208083526110768184018d611036565b6001600160a01b039b8c166020850152998b1660408401525050958816606087015267ffffffffffffffff9490941660808601529190951660a084015260c083019490945260e08201939093526101000191909152919050565b634e487b7160e01b600052601160045260246000fd5b6000600182016110f8576110f86110d0565b5060010190565b634e487b7160e01b600052601260045260246000fd5b60008261113257634e487b7160e01b600052601260045260246000fd5b500490565b634e487b7160e01b600052604160045260246000fd5b81810381811115611160576111606110d0565b92915050565b6000816000190483118215151615611180576111806110d0565b500290565b60ff8181168382160190811115611160576111606110d0565b634e487b7160e01b600052603260045260246000fd5b6000602082840312156111c657600080fd5b81516111d181610e76565b9392505050565b600082516111ea818460208701610ecd565b9190910192915050565b6020815260006111d1602083018461103656fea2646970667358221220c74824217d0b5a4697b23ff9485952e8dbbd261e9ee886abd01cb3d55a6bd27d64736f6c63430008100033",
    "linkReferences": {}
  },
  "methodIdentifiers": {
    "assertDataFor(bytes32,bytes32,address)": "93ee663b",
    "assertionDisputedCallback(bytes32)": "d448a4ec",
    "assertionLiveness()": "b75d4e24",
    "assertionResolvedCallback(bytes32,bool)": "f1b156b2",
    "assertionsData(bytes32)": "b33893da",
    "defaultCurrency()": "20402e1d",
    "defaultIdentifier()": "d509b017",
    "getData(bytes32)": "54f6127f",
    "oo()": "8921a614"
  },
  "id": 28
}